{
	"_format": "hh-sol-artifact-1",
	"contractName": "NFTMarketplace",
	"sourceName": "contracts/Marketplace.sol",
	"abi": [
		{
			"inputs": [
				{
					"internalType": "address",
					"name": "_nftContract",
					"type": "address"
				}
			],
			"stateMutability": "nonpayable",
			"type": "constructor"
		},
		{
			"anonymous": false,
			"inputs": [
				{
					"indexed": true,
					"internalType": "uint256",
					"name": "tokenId",
					"type": "uint256"
				},
				{
					"indexed": true,
					"internalType": "address",
					"name": "highestBidder",
					"type": "address"
				},
				{
					"indexed": false,
					"internalType": "uint256",
					"name": "winningBid",
					"type": "uint256"
				}
			],
			"name": "AuctionEnded",
			"type": "event"
		},
		{
			"anonymous": false,
			"inputs": [
				{
					"indexed": true,
					"internalType": "uint256",
					"name": "tokenId",
					"type": "uint256"
				},
				{
					"indexed": true,
					"internalType": "uint256",
					"name": "floorPrice",
					"type": "uint256"
				},
				{
					"indexed": true,
					"internalType": "uint256",
					"name": "endAt",
					"type": "uint256"
				}
			],
			"name": "AuctionStarted",
			"type": "event"
		},
		{
			"anonymous": false,
			"inputs": [
				{
					"indexed": true,
					"internalType": "uint256",
					"name": "tokenId",
					"type": "uint256"
				},
				{
					"indexed": true,
					"internalType": "address",
					"name": "bidder",
					"type": "address"
				},
				{
					"indexed": false,
					"internalType": "uint256",
					"name": "amount",
					"type": "uint256"
				}
			],
			"name": "BidPlaced",
			"type": "event"
		},
		{
			"anonymous": false,
			"inputs": [
				{
					"indexed": true,
					"internalType": "uint256",
					"name": "tokenId",
					"type": "uint256"
				},
				{
					"indexed": true,
					"internalType": "address",
					"name": "seller",
					"type": "address"
				}
			],
			"name": "SaleCancelled",
			"type": "event"
		},
		{
			"anonymous": false,
			"inputs": [
				{
					"indexed": true,
					"internalType": "uint256",
					"name": "tokenId",
					"type": "uint256"
				},
				{
					"indexed": true,
					"internalType": "address",
					"name": "seller",
					"type": "address"
				},
				{
					"indexed": false,
					"internalType": "uint256",
					"name": "price",
					"type": "uint256"
				}
			],
			"name": "SaleCreated",
			"type": "event"
		},
		{
			"anonymous": false,
			"inputs": [
				{
					"indexed": true,
					"internalType": "uint256",
					"name": "tokenId",
					"type": "uint256"
				},
				{
					"indexed": true,
					"internalType": "address",
					"name": "seller",
					"type": "address"
				},
				{
					"indexed": true,
					"internalType": "address",
					"name": "buyer",
					"type": "address"
				},
				{
					"indexed": false,
					"internalType": "uint256",
					"name": "price",
					"type": "uint256"
				}
			],
			"name": "SaleSuccessful",
			"type": "event"
		},
		{
			"inputs": [
				{
					"internalType": "uint256",
					"name": "tokenId",
					"type": "uint256"
				}
			],
			"name": "bid",
			"outputs": [],
			"stateMutability": "payable",
			"type": "function"
		},
		{
			"inputs": [
				{
					"internalType": "uint256",
					"name": "_tokenId",
					"type": "uint256"
				}
			],
			"name": "buy",
			"outputs": [],
			"stateMutability": "payable",
			"type": "function"
		},
		{
			"inputs": [
				{
					"internalType": "uint256",
					"name": "",
					"type": "uint256"
				},
				{
					"internalType": "uint256",
					"name": "",
					"type": "uint256"
				}
			],
			"name": "buyRequest",
			"outputs": [
				{
					"internalType": "address",
					"name": "requester",
					"type": "address"
				},
				{
					"internalType": "uint256",
					"name": "amount",
					"type": "uint256"
				}
			],
			"stateMutability": "view",
			"type": "function"
		},
		{
			"inputs": [
				{
					"internalType": "uint256",
					"name": "_tokenId",
					"type": "uint256"
				}
			],
			"name": "cancelSale",
			"outputs": [],
			"stateMutability": "nonpayable",
			"type": "function"
		},
		{
			"inputs": [
				{
					"internalType": "uint256",
					"name": "_tokenId",
					"type": "uint256"
				},
				{
					"internalType": "uint256",
					"name": "_price",
					"type": "uint256"
				},
				{
					"internalType": "uint256",
					"name": "_endAt",
					"type": "uint256"
				},
				{
					"internalType": "enum NFTMarketplace.SaleType",
					"name": "saleType",
					"type": "uint8"
				}
			],
			"name": "createSale",
			"outputs": [],
			"stateMutability": "nonpayable",
			"type": "function"
		},
		{
			"inputs": [
				{
					"internalType": "uint256",
					"name": "tokenId",
					"type": "uint256"
				}
			],
			"name": "endAuction",
			"outputs": [],
			"stateMutability": "nonpayable",
			"type": "function"
		},
		{
			"inputs": [],
			"name": "feePercentage",
			"outputs": [
				{
					"internalType": "uint256",
					"name": "",
					"type": "uint256"
				}
			],
			"stateMutability": "view",
			"type": "function"
		},
		{
			"inputs": [],
			"name": "getListedTokens",
			"outputs": [
				{
					"components": [
						{
							"internalType": "uint256",
							"name": "tokenId",
							"type": "uint256"
						},
						{
							"internalType": "address",
							"name": "seller",
							"type": "address"
						},
						{
							"internalType": "uint256",
							"name": "floorPrice",
							"type": "uint256"
						},
						{
							"internalType": "bool",
							"name": "active",
							"type": "bool"
						},
						{
							"internalType": "uint256",
							"name": "endAt",
							"type": "uint256"
						},
						{
							"internalType": "enum NFTMarketplace.SaleType",
							"name": "SaleType",
							"type": "uint8"
						}
					],
					"internalType": "struct NFTMarketplace.Sale[]",
					"name": "",
					"type": "tuple[]"
				}
			],
			"stateMutability": "view",
			"type": "function"
		},
		{
			"inputs": [
				{
					"internalType": "uint256",
					"name": "",
					"type": "uint256"
				}
			],
			"name": "listedTokenIds",
			"outputs": [
				{
					"internalType": "uint256",
					"name": "",
					"type": "uint256"
				}
			],
			"stateMutability": "view",
			"type": "function"
		},
		{
			"inputs": [
				{
					"internalType": "uint256",
					"name": "_tokenId",
					"type": "uint256"
				},
				{
					"internalType": "uint256",
					"name": "_floorPrice",
					"type": "uint256"
				},
				{
					"internalType": "enum NFTMarketplace.SaleType",
					"name": "saleType",
					"type": "uint8"
				}
			],
			"name": "modifySale",
			"outputs": [],
			"stateMutability": "nonpayable",
			"type": "function"
		},
		{
			"inputs": [],
			"name": "nftContract",
			"outputs": [
				{
					"internalType": "contract ERC721",
					"name": "",
					"type": "address"
				}
			],
			"stateMutability": "view",
			"type": "function"
		},
		{
			"inputs": [],
			"name": "owner",
			"outputs": [
				{
					"internalType": "address",
					"name": "",
					"type": "address"
				}
			],
			"stateMutability": "view",
			"type": "function"
		},
		{
			"inputs": [
				{
					"internalType": "uint256",
					"name": "_feePercentage",
					"type": "uint256"
				}
			],
			"name": "setFeePercentage",
			"outputs": [],
			"stateMutability": "nonpayable",
			"type": "function"
		},
		{
			"inputs": [
				{
					"internalType": "uint256",
					"name": "",
					"type": "uint256"
				}
			],
			"name": "tokenIdToSale",
			"outputs": [
				{
					"internalType": "uint256",
					"name": "tokenId",
					"type": "uint256"
				},
				{
					"internalType": "address",
					"name": "seller",
					"type": "address"
				},
				{
					"internalType": "uint256",
					"name": "floorPrice",
					"type": "uint256"
				},
				{
					"internalType": "bool",
					"name": "active",
					"type": "bool"
				},
				{
					"internalType": "uint256",
					"name": "endAt",
					"type": "uint256"
				},
				{
					"internalType": "enum NFTMarketplace.SaleType",
					"name": "SaleType",
					"type": "uint8"
				}
			],
			"stateMutability": "view",
			"type": "function"
		},
		{
			"inputs": [],
			"name": "withdrawFunds",
			"outputs": [],
			"stateMutability": "nonpayable",
			"type": "function"
		}
	],
	"bytecode": "0x60806040523480156200001157600080fd5b5060405162002f0f38038062002f0f833981810160405281019062000037919062000130565b336000806101000a81548173ffffffffffffffffffffffffffffffffffffffff021916908373ffffffffffffffffffffffffffffffffffffffff1602179055506001808190555080600460006101000a81548173ffffffffffffffffffffffffffffffffffffffff021916908373ffffffffffffffffffffffffffffffffffffffff1602179055505062000162565b600080fd5b600073ffffffffffffffffffffffffffffffffffffffff82169050919050565b6000620000f882620000cb565b9050919050565b6200010a81620000eb565b81146200011657600080fd5b50565b6000815190506200012a81620000ff565b92915050565b600060208284031215620001495762000148620000c6565b5b6000620001598482850162000119565b91505092915050565b612d9d80620001726000396000f3fe6080604052600436106100e85760003560e01c8063ae06c1b71161008a578063d56d229d11610059578063d56d229d146102c4578063d96a094a146102ef578063e6a3f7a41461030b578063e8d91ff614610334576100e8565b8063ae06c1b71461020c578063b6feadc814610235578063b9a2de3a14610272578063bd94b0051461029b576100e8565b8063454a2ab3116100c6578063454a2ab31461017157806347a0d79c1461018d5780638da5cb5b146101b6578063a001ecdd146101e1576100e8565b806324600fc3146100ed5780632ba996a51461010457806338644c5e1461012f575b600080fd5b3480156100f957600080fd5b50610102610372565b005b34801561011057600080fd5b5061011961046f565b60405161012691906120b0565b60405180910390f35b34801561013b57600080fd5b5061015660048036038101906101519190612103565b61071d565b6040516101689695949392919061216c565b60405180910390f35b61018b60048036038101906101869190612103565b610793565b005b34801561019957600080fd5b506101b460048036038101906101af91906121f2565b610bf9565b005b3480156101c257600080fd5b506101cb610f2b565b6040516101d89190612245565b60405180910390f35b3480156101ed57600080fd5b506101f6610f4f565b6040516102039190612260565b60405180910390f35b34801561021857600080fd5b50610233600480360381019061022e9190612103565b610f55565b005b34801561024157600080fd5b5061025c60048036038101906102579190612103565b611031565b6040516102699190612260565b60405180910390f35b34801561027e57600080fd5b5061029960048036038101906102949190612103565b611055565b005b3480156102a757600080fd5b506102c260048036038101906102bd9190612103565b6113ee565b005b3480156102d057600080fd5b506102d9611659565b6040516102e691906122da565b60405180910390f35b61030960048036038101906103049190612103565b61167f565b005b34801561031757600080fd5b50610332600480360381019061032d91906122f5565b6119e4565b005b34801561034057600080fd5b5061035b6004803603810190610356919061235c565b611cf4565b60405161036992919061239c565b60405180910390f35b60008054906101000a900473ffffffffffffffffffffffffffffffffffffffff1673ffffffffffffffffffffffffffffffffffffffff163373ffffffffffffffffffffffffffffffffffffffff1614610400576040517f08c379a00000000000000000000000000000000000000000000000000000000081526004016103f790612448565b60405180910390fd5b600047905060008054906101000a900473ffffffffffffffffffffffffffffffffffffffff1673ffffffffffffffffffffffffffffffffffffffff166108fc829081150290604051600060405180830381858888f1935050505015801561046b573d6000803e3d6000fd5b5050565b6060600060058054905067ffffffffffffffff81111561049257610491612468565b5b6040519080825280602002602001820160405280156104cb57816020015b6104b8611e3a565b8152602001906001900390816104b05790505b50905060005b600580549050811015610715576000600582815481106104f4576104f3612497565b5b906000526020600020015490506000600360008381526020019081526020016000206040518060c0016040529081600082015481526020016001820160009054906101000a900473ffffffffffffffffffffffffffffffffffffffff1673ffffffffffffffffffffffffffffffffffffffff1673ffffffffffffffffffffffffffffffffffffffff168152602001600282015481526020016003820160009054906101000a900460ff16151515158152602001600482015481526020016005820160009054906101000a900460ff1660018111156105d5576105d4611f3b565b5b60018111156105e7576105e6611f3b565b5b815250509050428160800151111561070057600360008381526020019081526020016000206040518060c0016040529081600082015481526020016001820160009054906101000a900473ffffffffffffffffffffffffffffffffffffffff1673ffffffffffffffffffffffffffffffffffffffff1673ffffffffffffffffffffffffffffffffffffffff168152602001600282015481526020016003820160009054906101000a900460ff16151515158152602001600482015481526020016005820160009054906101000a900460ff1660018111156106cb576106ca611f3b565b5b60018111156106dd576106dc611f3b565b5b815250508484815181106106f4576106f3612497565b5b60200260200101819052505b5050808061070d906124f5565b9150506104d1565b508091505090565b60036020528060005260406000206000915090508060000154908060010160009054906101000a900473ffffffffffffffffffffffffffffffffffffffff16908060020154908060030160009054906101000a900460ff16908060040154908060050160009054906101000a900460ff16905086565b60006003600083815260200190815260200160002090508060030160009054906101000a900460ff166107fb576040517f08c379a00000000000000000000000000000000000000000000000000000000081526004016107f29061258a565b60405180910390fd5b8060040154421115610842576040517f08c379a0000000000000000000000000000000000000000000000000000000008152600401610839906125f6565b60405180910390fd5b80600201543411610888576040517f08c379a000000000000000000000000000000000000000000000000000000000815260040161087f90612688565b60405180910390fd5b6000600181111561089c5761089b611f3b565b5b8160050160009054906101000a900460ff1660018111156108c0576108bf611f3b565b5b14610900576040517f08c379a00000000000000000000000000000000000000000000000000000000081526004016108f79061271a565b60405180910390fd5b600060026000848152602001908152602001600020805490501415610a2a57348160020181905550338160010160006101000a81548173ffffffffffffffffffffffffffffffffffffffff021916908373ffffffffffffffffffffffffffffffffffffffff1602179055506002600083815260200190815260200160002060405180604001604052803373ffffffffffffffffffffffffffffffffffffffff16815260200134815250908060018154018082558091505060019003906000526020600020906002020160009091909190915060008201518160000160006101000a81548173ffffffffffffffffffffffffffffffffffffffff021916908373ffffffffffffffffffffffffffffffffffffffff160217905550602082015181600101555050610ba6565b60008160010160009054906101000a900473ffffffffffffffffffffffffffffffffffffffff1690508073ffffffffffffffffffffffffffffffffffffffff166108fc83600201549081150290604051600060405180830381858888f19350505050158015610a9d573d6000803e3d6000fd5b50348260020181905550338260010160006101000a81548173ffffffffffffffffffffffffffffffffffffffff021916908373ffffffffffffffffffffffffffffffffffffffff1602179055506002600084815260200190815260200160002060405180604001604052803373ffffffffffffffffffffffffffffffffffffffff16815260200134815250908060018154018082558091505060019003906000526020600020906002020160009091909190915060008201518160000160006101000a81548173ffffffffffffffffffffffffffffffffffffffff021916908373ffffffffffffffffffffffffffffffffffffffff160217905550602082015181600101555050505b3373ffffffffffffffffffffffffffffffffffffffff16827f0e54eff26401bf69b81b26f60bd85ef47f5d85275c1d268d84f68d6897431c4734604051610bed9190612260565b60405180910390a35050565b3373ffffffffffffffffffffffffffffffffffffffff16600460009054906101000a900473ffffffffffffffffffffffffffffffffffffffff1673ffffffffffffffffffffffffffffffffffffffff16636352211e856040518263ffffffff1660e01b8152600401610c6b9190612260565b60206040518083038186803b158015610c8357600080fd5b505afa158015610c97573d6000803e3d6000fd5b505050506040513d601f19601f82011682018060405250810190610cbb9190612766565b73ffffffffffffffffffffffffffffffffffffffff1614610d11576040517f08c379a0000000000000000000000000000000000000000000000000000000008152600401610d0890612805565b60405180910390fd5b60008211610d54576040517f08c379a0000000000000000000000000000000000000000000000000000000008152600401610d4b90612871565b60405180910390fd5b3373ffffffffffffffffffffffffffffffffffffffff16837fd9e530acb8429c8e5337d9d3230e4cc7d742e32c2fc8d76608c19f2e1701ed0460405160405180910390a36000600360008581526020019081526020016000206004015490506040518060c001604052808581526020013373ffffffffffffffffffffffffffffffffffffffff168152602001848152602001600115158152602001828152602001836001811115610e0857610e07611f3b565b5b815250600360008681526020019081526020016000206000820151816000015560208201518160010160006101000a81548173ffffffffffffffffffffffffffffffffffffffff021916908373ffffffffffffffffffffffffffffffffffffffff1602179055506040820151816002015560608201518160030160006101000a81548160ff0219169083151502179055506080820151816004015560a08201518160050160006101000a81548160ff02191690836001811115610ece57610ecd611f3b565b5b02179055509050503373ffffffffffffffffffffffffffffffffffffffff16847fa29262303591d48ce94646a46b652916ce782073349bb5dc261ac4c5237d939785604051610f1d9190612260565b60405180910390a350505050565b60008054906101000a900473ffffffffffffffffffffffffffffffffffffffff1681565b60015481565b60008054906101000a900473ffffffffffffffffffffffffffffffffffffffff1673ffffffffffffffffffffffffffffffffffffffff163373ffffffffffffffffffffffffffffffffffffffff1614610fe3576040517f08c379a0000000000000000000000000000000000000000000000000000000008152600401610fda90612448565b60405180910390fd5b6005811115611027576040517f08c379a000000000000000000000000000000000000000000000000000000000815260040161101e90612903565b60405180910390fd5b8060018190555050565b6005818154811061104157600080fd5b906000526020600020016000915090505481565b60008054906101000a900473ffffffffffffffffffffffffffffffffffffffff1673ffffffffffffffffffffffffffffffffffffffff163373ffffffffffffffffffffffffffffffffffffffff16146110e3576040517f08c379a00000000000000000000000000000000000000000000000000000000081526004016110da90612448565b60405180910390fd5b60006003600083815260200190815260200160002090508060030160009054906101000a900460ff1661114b576040517f08c379a00000000000000000000000000000000000000000000000000000000081526004016111429061258a565b60405180910390fd5b8060040154421015611192576040517f08c379a00000000000000000000000000000000000000000000000000000000081526004016111899061296f565b60405180910390fd5b60008160010160009054906101000a900473ffffffffffffffffffffffffffffffffffffffff1690506000826002015490506000600460009054906101000a900473ffffffffffffffffffffffffffffffffffffffff1673ffffffffffffffffffffffffffffffffffffffff16636352211e866040518263ffffffff1660e01b81526004016112219190612260565b60206040518083038186803b15801561123957600080fd5b505afa15801561124d573d6000803e3d6000fd5b505050506040513d601f19601f820116820180604052508101906112719190612766565b9050600460009054906101000a900473ffffffffffffffffffffffffffffffffffffffff1673ffffffffffffffffffffffffffffffffffffffff166323b872dd8285886040518463ffffffff1660e01b81526004016112d2939291906129b0565b600060405180830381600087803b1580156112ec57600080fd5b505af1158015611300573d6000803e3d6000fd5b50505050600060646001548461131691906129e7565b6113209190612a70565b9050600081846113309190612aa1565b90508273ffffffffffffffffffffffffffffffffffffffff166108fc829081150290604051600060405180830381858888f19350505050158015611378573d6000803e3d6000fd5b5060008660030160006101000a81548160ff0219169083151502179055508473ffffffffffffffffffffffffffffffffffffffff16877fd2aa34a4fdbbc6dff6a3e56f46e0f3ae2a31d7785ff3487aa5c95c642acea501866040516113dd9190612260565b60405180910390a350505050505050565b60006003600083815260200190815260200160002090508060030160009054906101000a900460ff16611456576040517f08c379a000000000000000000000000000000000000000000000000000000000815260040161144d90612b21565b60405180910390fd5b3373ffffffffffffffffffffffffffffffffffffffff16600460009054906101000a900473ffffffffffffffffffffffffffffffffffffffff1673ffffffffffffffffffffffffffffffffffffffff16636352211e846040518263ffffffff1660e01b81526004016114c89190612260565b60206040518083038186803b1580156114e057600080fd5b505afa1580156114f4573d6000803e3d6000fd5b505050506040513d601f19601f820116820180604052508101906115189190612766565b73ffffffffffffffffffffffffffffffffffffffff161461156e576040517f08c379a000000000000000000000000000000000000000000000000000000000815260040161156590612bb3565b60405180910390fd5b600360008381526020019081526020016000206000808201600090556001820160006101000a81549073ffffffffffffffffffffffffffffffffffffffff021916905560028201600090556003820160006101000a81549060ff021916905560048201600090556005820160006101000a81549060ff0219169055505060008160030160006101000a81548160ff02191690831515021790555061161182611d55565b3373ffffffffffffffffffffffffffffffffffffffff16827fd9e530acb8429c8e5337d9d3230e4cc7d742e32c2fc8d76608c19f2e1701ed0460405160405180910390a35050565b600460009054906101000a900473ffffffffffffffffffffffffffffffffffffffff1681565b60006003600083815260200190815260200160002090508060030160009054906101000a900460ff166116e7576040517f08c379a00000000000000000000000000000000000000000000000000000000081526004016116de90612b21565b60405180910390fd5b806002015434101561172e576040517f08c379a000000000000000000000000000000000000000000000000000000000815260040161172590612c1f565b60405180910390fd5b4281600401541015611775576040517f08c379a000000000000000000000000000000000000000000000000000000000815260040161176c90612c8b565b60405180910390fd5b60008160010160009054906101000a900473ffffffffffffffffffffffffffffffffffffffff1690506000606460015484600201546117b491906129e7565b6117be9190612a70565b905060008360010160009054906101000a900473ffffffffffffffffffffffffffffffffffffffff169050600360008681526020019081526020016000206000808201600090556001820160006101000a81549073ffffffffffffffffffffffffffffffffffffffff021916905560028201600090556003820160006101000a81549060ff021916905560048201600090556005820160006101000a81549060ff02191690555050600082346118749190612aa1565b9050600460009054906101000a900473ffffffffffffffffffffffffffffffffffffffff1673ffffffffffffffffffffffffffffffffffffffff166323b872dd8333896040518463ffffffff1660e01b81526004016118d593929190612cab565b600060405180830381600087803b1580156118ef57600080fd5b505af1158015611903573d6000803e3d6000fd5b505050508373ffffffffffffffffffffffffffffffffffffffff166108fc829081150290604051600060405180830381858888f1935050505015801561194d573d6000803e3d6000fd5b503373ffffffffffffffffffffffffffffffffffffffff168560010160009054906101000a900473ffffffffffffffffffffffffffffffffffffffff1673ffffffffffffffffffffffffffffffffffffffff16877f64b02497e7e7114dfbf373decb8fc827c41794498699d8742beb61a0038f6c5b88600201546040516119d49190612260565b60405180910390a4505050505050565b3373ffffffffffffffffffffffffffffffffffffffff16600460009054906101000a900473ffffffffffffffffffffffffffffffffffffffff1673ffffffffffffffffffffffffffffffffffffffff16636352211e866040518263ffffffff1660e01b8152600401611a569190612260565b60206040518083038186803b158015611a6e57600080fd5b505afa158015611a82573d6000803e3d6000fd5b505050506040513d601f19601f82011682018060405250810190611aa69190612766565b73ffffffffffffffffffffffffffffffffffffffff1614611afc576040517f08c379a0000000000000000000000000000000000000000000000000000000008152600401611af390612805565b60405180910390fd5b60008311611b3f576040517f08c379a0000000000000000000000000000000000000000000000000000000008152600401611b3690612871565b60405180910390fd5b6040518060c001604052808581526020013373ffffffffffffffffffffffffffffffffffffffff1681526020018481526020016001151581526020018342611b879190612ce2565b8152602001826001811115611b9f57611b9e611f3b565b5b815250600360008681526020019081526020016000206000820151816000015560208201518160010160006101000a81548173ffffffffffffffffffffffffffffffffffffffff021916908373ffffffffffffffffffffffffffffffffffffffff1602179055506040820151816002015560608201518160030160006101000a81548160ff0219169083151502179055506080820151816004015560a08201518160050160006101000a81548160ff02191690836001811115611c6557611c64611f3b565b5b0217905550905050611c7684611d55565b60058490806001815401808255809150506001900390600052602060002001600090919091909150553373ffffffffffffffffffffffffffffffffffffffff16847fa29262303591d48ce94646a46b652916ce782073349bb5dc261ac4c5237d939785604051611ce69190612260565b60405180910390a350505050565b60026020528160005260406000208181548110611d1057600080fd5b9060005260206000209060020201600091509150508060000160009054906101000a900473ffffffffffffffffffffffffffffffffffffffff16908060010154905082565b60005b600580549050811015611e36578160058281548110611d7a57611d79612497565b5b90600052602060002001541415611e23576001600580549050611d9d9190612aa1565b8114611df65760056001600580549050611db79190612aa1565b81548110611dc857611dc7612497565b5b906000526020600020015460058281548110611de757611de6612497565b5b90600052602060002001819055505b6005805480611e0857611e07612d38565b5b60019003818190600052602060002001600090559055611e36565b8080611e2e906124f5565b915050611d58565b5050565b6040518060c0016040528060008152602001600073ffffffffffffffffffffffffffffffffffffffff168152602001600081526020016000151581526020016000815260200160006001811115611e9457611e93611f3b565b5b81525090565b600081519050919050565b600082825260208201905092915050565b6000819050602082019050919050565b6000819050919050565b611ed981611ec6565b82525050565b600073ffffffffffffffffffffffffffffffffffffffff82169050919050565b6000611f0a82611edf565b9050919050565b611f1a81611eff565b82525050565b60008115159050919050565b611f3581611f20565b82525050565b7f4e487b7100000000000000000000000000000000000000000000000000000000600052602160045260246000fd5b60028110611f7b57611f7a611f3b565b5b50565b6000819050611f8c82611f6a565b919050565b6000611f9c82611f7e565b9050919050565b611fac81611f91565b82525050565b60c082016000820151611fc86000850182611ed0565b506020820151611fdb6020850182611f11565b506040820151611fee6040850182611ed0565b5060608201516120016060850182611f2c565b5060808201516120146080850182611ed0565b5060a082015161202760a0850182611fa3565b50505050565b60006120398383611fb2565b60c08301905092915050565b6000602082019050919050565b600061205d82611e9a565b6120678185611ea5565b935061207283611eb6565b8060005b838110156120a357815161208a888261202d565b975061209583612045565b925050600181019050612076565b5085935050505092915050565b600060208201905081810360008301526120ca8184612052565b905092915050565b600080fd5b6120e081611ec6565b81146120eb57600080fd5b50565b6000813590506120fd816120d7565b92915050565b600060208284031215612119576121186120d2565b5b6000612127848285016120ee565b91505092915050565b61213981611ec6565b82525050565b61214881611eff565b82525050565b61215781611f20565b82525050565b61216681611f91565b82525050565b600060c0820190506121816000830189612130565b61218e602083018861213f565b61219b6040830187612130565b6121a8606083018661214e565b6121b56080830185612130565b6121c260a083018461215d565b979650505050505050565b600281106121da57600080fd5b50565b6000813590506121ec816121cd565b92915050565b60008060006060848603121561220b5761220a6120d2565b5b6000612219868287016120ee565b935050602061222a868287016120ee565b925050604061223b868287016121dd565b9150509250925092565b600060208201905061225a600083018461213f565b92915050565b60006020820190506122756000830184612130565b92915050565b6000819050919050565b60006122a061229b61229684611edf565b61227b565b611edf565b9050919050565b60006122b282612285565b9050919050565b60006122c4826122a7565b9050919050565b6122d4816122b9565b82525050565b60006020820190506122ef60008301846122cb565b92915050565b6000806000806080858703121561230f5761230e6120d2565b5b600061231d878288016120ee565b945050602061232e878288016120ee565b935050604061233f878288016120ee565b9250506060612350878288016121dd565b91505092959194509250565b60008060408385031215612373576123726120d2565b5b6000612381858286016120ee565b9250506020612392858286016120ee565b9150509250929050565b60006040820190506123b1600083018561213f565b6123be6020830184612130565b9392505050565b600082825260208201905092915050565b7f4f6e6c7920636f6e7472616374206f776e65722063616e2063616c6c2074686960008201527f732066756e6374696f6e00000000000000000000000000000000000000000000602082015250565b6000612432602a836123c5565b915061243d826123d6565b604082019050919050565b6000602082019050818103600083015261246181612425565b9050919050565b7f4e487b7100000000000000000000000000000000000000000000000000000000600052604160045260246000fd5b7f4e487b7100000000000000000000000000000000000000000000000000000000600052603260045260246000fd5b7f4e487b7100000000000000000000000000000000000000000000000000000000600052601160045260246000fd5b600061250082611ec6565b91507fffffffffffffffffffffffffffffffffffffffffffffffffffffffffffffffff821415612533576125326124c6565b5b600182019050919050565b7f41756374696f6e206973206e6f74206163746976650000000000000000000000600082015250565b60006125746015836123c5565b915061257f8261253e565b602082019050919050565b600060208201905081810360008301526125a381612567565b9050919050565b7f41756374696f6e2068617320656e646564000000000000000000000000000000600082015250565b60006125e06011836123c5565b91506125eb826125aa565b602082019050919050565b6000602082019050818103600083015261260f816125d3565b9050919050565b7f426964206d75737420626520686967686572207468616e2074686520666c6f6f60008201527f7220707269636500000000000000000000000000000000000000000000000000602082015250565b60006126726027836123c5565b915061267d82612616565b604082019050919050565b600060208201905081810360008301526126a181612665565b9050919050565b7f746f6b656e696420617661696c61626c6520666f72206469726563742073616c60008201527f65206f6e6c790000000000000000000000000000000000000000000000000000602082015250565b60006127046026836123c5565b915061270f826126a8565b604082019050919050565b60006020820190508181036000830152612733816126f7565b9050919050565b61274381611eff565b811461274e57600080fd5b50565b6000815190506127608161273a565b92915050565b60006020828403121561277c5761277b6120d2565b5b600061278a84828501612751565b91505092915050565b7f4f6e6c792074686520746f6b656e206f776e65722063616e206372656174652060008201527f612073616c650000000000000000000000000000000000000000000000000000602082015250565b60006127ef6026836123c5565b91506127fa82612793565b604082019050919050565b6000602082019050818103600083015261281e816127e2565b9050919050565b7f5072696365206d7573742062652067726561746572207468616e207a65726f00600082015250565b600061285b601f836123c5565b915061286682612825565b602082019050919050565b6000602082019050818103600083015261288a8161284e565b9050919050565b7f4665652070657263656e74616765206d757374206265206c657373207468616e60008201527f206f7220657175616c20746f2035000000000000000000000000000000000000602082015250565b60006128ed602e836123c5565b91506128f882612891565b604082019050919050565b6000602082019050818103600083015261291c816128e0565b9050919050565b7f41756374696f6e20686173206e6f7420656e6465642079657400000000000000600082015250565b60006129596019836123c5565b915061296482612923565b602082019050919050565b600060208201905081810360008301526129888161294c565b9050919050565b600061299a826122a7565b9050919050565b6129aa8161298f565b82525050565b60006060820190506129c560008301866129a1565b6129d2602083018561213f565b6129df6040830184612130565b949350505050565b60006129f282611ec6565b91506129fd83611ec6565b9250817fffffffffffffffffffffffffffffffffffffffffffffffffffffffffffffffff0483118215151615612a3657612a356124c6565b5b828202905092915050565b7f4e487b7100000000000000000000000000000000000000000000000000000000600052601260045260246000fd5b6000612a7b82611ec6565b9150612a8683611ec6565b925082612a9657612a95612a41565b5b828204905092915050565b6000612aac82611ec6565b9150612ab783611ec6565b925082821015612aca57612ac96124c6565b5b828203905092915050565b7f53616c65206973206e6f74206163746976650000000000000000000000000000600082015250565b6000612b0b6012836123c5565b9150612b1682612ad5565b602082019050919050565b60006020820190508181036000830152612b3a81612afe565b9050919050565b7f4f6e6c792074686520746f6b656e206f776e65722063616e2063616e63656c2060008201527f612073616c650000000000000000000000000000000000000000000000000000602082015250565b6000612b9d6026836123c5565b9150612ba882612b41565b604082019050919050565b60006020820190508181036000830152612bcc81612b90565b9050919050565b7f496e73756666696369656e74207061796d656e74000000000000000000000000600082015250565b6000612c096014836123c5565b9150612c1482612bd3565b602082019050919050565b60006020820190508181036000830152612c3881612bfc565b9050919050565b7f73616c6520656e64656400000000000000000000000000000000000000000000600082015250565b6000612c75600a836123c5565b9150612c8082612c3f565b602082019050919050565b60006020820190508181036000830152612ca481612c68565b9050919050565b6000606082019050612cc0600083018661213f565b612ccd602083018561213f565b612cda6040830184612130565b949350505050565b6000612ced82611ec6565b9150612cf883611ec6565b9250827fffffffffffffffffffffffffffffffffffffffffffffffffffffffffffffffff03821115612d2d57612d2c6124c6565b5b828201905092915050565b7f4e487b7100000000000000000000000000000000000000000000000000000000600052603160045260246000fdfea2646970667358221220eee7ad32c1f7b2ec197be40630f6444577adcece3c3544ced5db697bbcc84b1264736f6c63430008090033",
	"linkReferences": {},
	"deployedLinkReferences": {}
}