{
  "_format": "hh-sol-artifact-1",
  "contractName": "ERC721Contract",
  "sourceName": "contracts/ERC721Contract.sol",
  "abi": [
    {
      "inputs": [],
      "stateMutability": "nonpayable",
      "type": "constructor"
    },
    {
      "anonymous": false,
      "inputs": [
        {
          "indexed": true,
          "internalType": "address",
          "name": "owner",
          "type": "address"
        },
        {
          "indexed": true,
          "internalType": "address",
          "name": "approved",
          "type": "address"
        },
        {
          "indexed": true,
          "internalType": "uint256",
          "name": "tokenId",
          "type": "uint256"
        }
      ],
      "name": "Approval",
      "type": "event"
    },
    {
      "anonymous": false,
      "inputs": [
        {
          "indexed": true,
          "internalType": "address",
          "name": "owner",
          "type": "address"
        },
        {
          "indexed": true,
          "internalType": "address",
          "name": "operator",
          "type": "address"
        },
        {
          "indexed": false,
          "internalType": "bool",
          "name": "approved",
          "type": "bool"
        }
      ],
      "name": "ApprovalForAll",
      "type": "event"
    },
    {
      "anonymous": false,
      "inputs": [
        {
          "indexed": true,
          "internalType": "address",
          "name": "previousOwner",
          "type": "address"
        },
        {
          "indexed": true,
          "internalType": "address",
          "name": "newOwner",
          "type": "address"
        }
      ],
      "name": "OwnershipTransferred",
      "type": "event"
    },
    {
      "anonymous": false,
      "inputs": [
        {
          "indexed": true,
          "internalType": "address",
          "name": "from",
          "type": "address"
        },
        {
          "indexed": true,
          "internalType": "address",
          "name": "to",
          "type": "address"
        },
        {
          "indexed": true,
          "internalType": "uint256",
          "name": "tokenId",
          "type": "uint256"
        }
      ],
      "name": "Transfer",
      "type": "event"
    },
    {
      "inputs": [
        {
          "internalType": "address",
          "name": "to",
          "type": "address"
        },
        {
          "internalType": "uint256",
          "name": "tokenId",
          "type": "uint256"
        }
      ],
      "name": "approve",
      "outputs": [],
      "stateMutability": "nonpayable",
      "type": "function"
    },
    {
      "inputs": [
        {
          "internalType": "address",
          "name": "owner",
          "type": "address"
        }
      ],
      "name": "balanceOf",
      "outputs": [
        {
          "internalType": "uint256",
          "name": "",
          "type": "uint256"
        }
      ],
      "stateMutability": "view",
      "type": "function"
    },
    {
      "inputs": [
        {
          "internalType": "uint256",
          "name": "tokenId",
          "type": "uint256"
        }
      ],
      "name": "getApproved",
      "outputs": [
        {
          "internalType": "address",
          "name": "",
          "type": "address"
        }
      ],
      "stateMutability": "view",
      "type": "function"
    },
    {
      "inputs": [
        {
          "internalType": "address",
          "name": "owner",
          "type": "address"
        },
        {
          "internalType": "address",
          "name": "operator",
          "type": "address"
        }
      ],
      "name": "isApprovedForAll",
      "outputs": [
        {
          "internalType": "bool",
          "name": "",
          "type": "bool"
        }
      ],
      "stateMutability": "view",
      "type": "function"
    },
    {
      "inputs": [],
      "name": "name",
      "outputs": [
        {
          "internalType": "string",
          "name": "",
          "type": "string"
        }
      ],
      "stateMutability": "view",
      "type": "function"
    },
    {
      "inputs": [],
      "name": "owner",
      "outputs": [
        {
          "internalType": "address",
          "name": "",
          "type": "address"
        }
      ],
      "stateMutability": "view",
      "type": "function"
    },
    {
      "inputs": [
        {
          "internalType": "uint256",
          "name": "tokenId",
          "type": "uint256"
        }
      ],
      "name": "ownerOf",
      "outputs": [
        {
          "internalType": "address",
          "name": "",
          "type": "address"
        }
      ],
      "stateMutability": "view",
      "type": "function"
    },
    {
      "inputs": [],
      "name": "renounceOwnership",
      "outputs": [],
      "stateMutability": "nonpayable",
      "type": "function"
    },
    {
      "inputs": [
        {
          "internalType": "string",
          "name": "_tokenURI",
          "type": "string"
        }
      ],
      "name": "safeMint",
      "outputs": [],
      "stateMutability": "nonpayable",
      "type": "function"
    },
    {
      "inputs": [
        {
          "internalType": "address",
          "name": "from",
          "type": "address"
        },
        {
          "internalType": "address",
          "name": "to",
          "type": "address"
        },
        {
          "internalType": "uint256",
          "name": "tokenId",
          "type": "uint256"
        }
      ],
      "name": "safeTransferFrom",
      "outputs": [],
      "stateMutability": "nonpayable",
      "type": "function"
    },
    {
      "inputs": [
        {
          "internalType": "address",
          "name": "from",
          "type": "address"
        },
        {
          "internalType": "address",
          "name": "to",
          "type": "address"
        },
        {
          "internalType": "uint256",
          "name": "tokenId",
          "type": "uint256"
        },
        {
          "internalType": "bytes",
          "name": "data",
          "type": "bytes"
        }
      ],
      "name": "safeTransferFrom",
      "outputs": [],
      "stateMutability": "nonpayable",
      "type": "function"
    },
    {
      "inputs": [
        {
          "internalType": "address",
          "name": "operator",
          "type": "address"
        },
        {
          "internalType": "bool",
          "name": "approved",
          "type": "bool"
        }
      ],
      "name": "setApprovalForAll",
      "outputs": [],
      "stateMutability": "nonpayable",
      "type": "function"
    },
    {
      "inputs": [
        {
          "internalType": "string",
          "name": "baseURI_",
          "type": "string"
        }
      ],
      "name": "setBaseURI",
      "outputs": [],
      "stateMutability": "nonpayable",
      "type": "function"
    },
    {
      "inputs": [
        {
          "internalType": "bytes4",
          "name": "interfaceId",
          "type": "bytes4"
        }
      ],
      "name": "supportsInterface",
      "outputs": [
        {
          "internalType": "bool",
          "name": "",
          "type": "bool"
        }
      ],
      "stateMutability": "view",
      "type": "function"
    },
    {
      "inputs": [],
      "name": "symbol",
      "outputs": [
        {
          "internalType": "string",
          "name": "",
          "type": "string"
        }
      ],
      "stateMutability": "view",
      "type": "function"
    },
    {
      "inputs": [
        {
          "internalType": "uint256",
          "name": "tokenId",
          "type": "uint256"
        }
      ],
      "name": "tokenURI",
      "outputs": [
        {
          "internalType": "string",
          "name": "",
          "type": "string"
        }
      ],
      "stateMutability": "view",
      "type": "function"
    },
    {
      "inputs": [
        {
          "internalType": "address",
          "name": "from",
          "type": "address"
        },
        {
          "internalType": "address",
          "name": "to",
          "type": "address"
        },
        {
          "internalType": "uint256",
          "name": "tokenId",
          "type": "uint256"
        }
      ],
      "name": "transferFrom",
      "outputs": [],
      "stateMutability": "nonpayable",
      "type": "function"
    },
    {
      "inputs": [
        {
          "internalType": "address",
          "name": "newOwner",
          "type": "address"
        }
      ],
      "name": "transferOwnership",
      "outputs": [],
      "stateMutability": "nonpayable",
      "type": "function"
    }
  ],
  "bytecode": "0x60806040523480156200001157600080fd5b506040518060400160405280600781526020017f4d79546f6b656e000000000000000000000000000000000000000000000000008152506040518060400160405280600381526020017f4d544b0000000000000000000000000000000000000000000000000000000000815250816000908051906020019062000096929190620001a6565b508060019080519060200190620000af929190620001a6565b505050620000d2620000c6620000d860201b60201c565b620000e060201b60201c565b620002bb565b600033905090565b6000600660009054906101000a900473ffffffffffffffffffffffffffffffffffffffff16905081600660006101000a81548173ffffffffffffffffffffffffffffffffffffffff021916908373ffffffffffffffffffffffffffffffffffffffff1602179055508173ffffffffffffffffffffffffffffffffffffffff168173ffffffffffffffffffffffffffffffffffffffff167f8be0079c531659141344cd1fd0a4f28419497f9722a3daafe3b4186f6b6457e060405160405180910390a35050565b828054620001b49062000285565b90600052602060002090601f016020900481019282620001d8576000855562000224565b82601f10620001f357805160ff191683800117855562000224565b8280016001018555821562000224579182015b828111156200022357825182559160200191906001019062000206565b5b50905062000233919062000237565b5090565b5b808211156200025257600081600090555060010162000238565b5090565b7f4e487b7100000000000000000000000000000000000000000000000000000000600052602260045260246000fd5b600060028204905060018216806200029e57607f821691505b60208210811415620002b557620002b462000256565b5b50919050565b612b8f80620002cb6000396000f3fe608060405234801561001057600080fd5b50600436106101165760003560e01c806370a08231116100a2578063a22cb46511610071578063a22cb465146102cb578063b88d4fde146102e7578063c87b56dd14610303578063e985e9c514610333578063f2fde38b1461036357610116565b806370a0823114610255578063715018a6146102855780638da5cb5b1461028f57806395d89b41146102ad57610116565b806323b872dd116100e957806323b872dd146101b557806342842e0e146101d157806355f804b3146101ed5780636352211e14610209578063695850fb1461023957610116565b806301ffc9a71461011b57806306fdde031461014b578063081812fc14610169578063095ea7b314610199575b600080fd5b61013560048036038101906101309190611b5b565b61037f565b6040516101429190611ba3565b60405180910390f35b610153610461565b6040516101609190611c57565b60405180910390f35b610183600480360381019061017e9190611caf565b6104f3565b6040516101909190611d1d565b60405180910390f35b6101b360048036038101906101ae9190611d64565b610539565b005b6101cf60048036038101906101ca9190611da4565b610651565b005b6101eb60048036038101906101e69190611da4565b6106b1565b005b61020760048036038101906102029190611f2c565b6106d1565b005b610223600480360381019061021e9190611caf565b6106f3565b6040516102309190611d1d565b60405180910390f35b610253600480360381019061024e9190611f2c565b61077a565b005b61026f600480360381019061026a9190611f75565b6107b2565b60405161027c9190611fb1565b60405180910390f35b61028d61086a565b005b61029761087e565b6040516102a49190611d1d565b60405180910390f35b6102b56108a8565b6040516102c29190611c57565b60405180910390f35b6102e560048036038101906102e09190611ff8565b61093a565b005b61030160048036038101906102fc91906120d9565b610950565b005b61031d60048036038101906103189190611caf565b6109b2565b60405161032a9190611c57565b60405180910390f35b61034d6004803603810190610348919061215c565b610b1d565b60405161035a9190611ba3565b60405180910390f35b61037d60048036038101906103789190611f75565b610bb1565b005b60007f80ac58cd000000000000000000000000000000000000000000000000000000007bffffffffffffffffffffffffffffffffffffffffffffffffffffffff1916827bffffffffffffffffffffffffffffffffffffffffffffffffffffffff1916148061044a57507f5b5e139f000000000000000000000000000000000000000000000000000000007bffffffffffffffffffffffffffffffffffffffffffffffffffffffff1916827bffffffffffffffffffffffffffffffffffffffffffffffffffffffff1916145b8061045a575061045982610c35565b5b9050919050565b606060008054610470906121cb565b80601f016020809104026020016040519081016040528092919081815260200182805461049c906121cb565b80156104e95780601f106104be576101008083540402835291602001916104e9565b820191906000526020600020905b8154815290600101906020018083116104cc57829003601f168201915b5050505050905090565b60006104fe82610c9f565b6004600083815260200190815260200160002060009054906101000a900473ffffffffffffffffffffffffffffffffffffffff169050919050565b6000610544826106f3565b90508073ffffffffffffffffffffffffffffffffffffffff168373ffffffffffffffffffffffffffffffffffffffff1614156105b5576040517f08c379a00000000000000000000000000000000000000000000000000000000081526004016105ac9061226f565b60405180910390fd5b8073ffffffffffffffffffffffffffffffffffffffff166105d4610cea565b73ffffffffffffffffffffffffffffffffffffffff1614806106035750610602816105fd610cea565b610b1d565b5b610642576040517f08c379a000000000000000000000000000000000000000000000000000000000815260040161063990612301565b60405180910390fd5b61064c8383610cf2565b505050565b61066261065c610cea565b82610dab565b6106a1576040517f08c379a000000000000000000000000000000000000000000000000000000000815260040161069890612393565b60405180910390fd5b6106ac838383610e40565b505050565b6106cc83838360405180602001604052806000815250610950565b505050565b6106d961113a565b80600890805190602001906106ef929190611a4c565b5050565b6000806106ff836111b8565b9050600073ffffffffffffffffffffffffffffffffffffffff168173ffffffffffffffffffffffffffffffffffffffff161415610771576040517f08c379a0000000000000000000000000000000000000000000000000000000008152600401610768906123ff565b60405180910390fd5b80915050919050565b61078261113a565b600061078e60076111f5565b905061079a6007611203565b6107a43382611219565b6107ae8183611237565b5050565b60008073ffffffffffffffffffffffffffffffffffffffff168273ffffffffffffffffffffffffffffffffffffffff161415610823576040517f08c379a000000000000000000000000000000000000000000000000000000000815260040161081a90612491565b60405180910390fd5b600360008373ffffffffffffffffffffffffffffffffffffffff1673ffffffffffffffffffffffffffffffffffffffff168152602001908152602001600020549050919050565b61087261113a565b61087c60006112ab565b565b6000600660009054906101000a900473ffffffffffffffffffffffffffffffffffffffff16905090565b6060600180546108b7906121cb565b80601f01602080910402602001604051908101604052809291908181526020018280546108e3906121cb565b80156109305780601f1061090557610100808354040283529160200191610930565b820191906000526020600020905b81548152906001019060200180831161091357829003601f168201915b5050505050905090565b61094c610945610cea565b8383611371565b5050565b61096161095b610cea565b83610dab565b6109a0576040517f08c379a000000000000000000000000000000000000000000000000000000000815260040161099790612393565b60405180910390fd5b6109ac848484846114de565b50505050565b60606109bd8261153a565b6109fc576040517f08c379a00000000000000000000000000000000000000000000000000000000081526004016109f390612523565b60405180910390fd5b6000600960008481526020019081526020016000208054610a1c906121cb565b80601f0160208091040260200160405190810160405280929190818152602001828054610a48906121cb565b8015610a955780601f10610a6a57610100808354040283529160200191610a95565b820191906000526020600020905b815481529060010190602001808311610a7857829003601f168201915b505050505090506000610aa661157b565b9050600081511415610abc578192505050610b18565b600082511115610af1578082604051602001610ad992919061257f565b60405160208183030381529060405292505050610b18565b8084604051602001610b049291906125c4565b604051602081830303815290604052925050505b919050565b6000600560008473ffffffffffffffffffffffffffffffffffffffff1673ffffffffffffffffffffffffffffffffffffffff16815260200190815260200160002060008373ffffffffffffffffffffffffffffffffffffffff1673ffffffffffffffffffffffffffffffffffffffff16815260200190815260200160002060009054906101000a900460ff16905092915050565b610bb961113a565b600073ffffffffffffffffffffffffffffffffffffffff168173ffffffffffffffffffffffffffffffffffffffff161415610c29576040517f08c379a0000000000000000000000000000000000000000000000000000000008152600401610c209061265e565b60405180910390fd5b610c32816112ab565b50565b60007f01ffc9a7000000000000000000000000000000000000000000000000000000007bffffffffffffffffffffffffffffffffffffffffffffffffffffffff1916827bffffffffffffffffffffffffffffffffffffffffffffffffffffffff1916149050919050565b610ca88161153a565b610ce7576040517f08c379a0000000000000000000000000000000000000000000000000000000008152600401610cde906123ff565b60405180910390fd5b50565b600033905090565b816004600083815260200190815260200160002060006101000a81548173ffffffffffffffffffffffffffffffffffffffff021916908373ffffffffffffffffffffffffffffffffffffffff160217905550808273ffffffffffffffffffffffffffffffffffffffff16610d65836106f3565b73ffffffffffffffffffffffffffffffffffffffff167f8c5be1e5ebec7d5bd14f71427d1e84f3dd0314c0f7b2291e5b200ac8c7c3b92560405160405180910390a45050565b600080610db7836106f3565b90508073ffffffffffffffffffffffffffffffffffffffff168473ffffffffffffffffffffffffffffffffffffffff161480610df95750610df88185610b1d565b5b80610e3757508373ffffffffffffffffffffffffffffffffffffffff16610e1f846104f3565b73ffffffffffffffffffffffffffffffffffffffff16145b91505092915050565b8273ffffffffffffffffffffffffffffffffffffffff16610e60826106f3565b73ffffffffffffffffffffffffffffffffffffffff1614610eb6576040517f08c379a0000000000000000000000000000000000000000000000000000000008152600401610ead906126f0565b60405180910390fd5b600073ffffffffffffffffffffffffffffffffffffffff168273ffffffffffffffffffffffffffffffffffffffff161415610f26576040517f08c379a0000000000000000000000000000000000000000000000000000000008152600401610f1d90612782565b60405180910390fd5b610f33838383600161160d565b8273ffffffffffffffffffffffffffffffffffffffff16610f53826106f3565b73ffffffffffffffffffffffffffffffffffffffff1614610fa9576040517f08c379a0000000000000000000000000000000000000000000000000000000008152600401610fa0906126f0565b60405180910390fd5b6004600082815260200190815260200160002060006101000a81549073ffffffffffffffffffffffffffffffffffffffff02191690556001600360008573ffffffffffffffffffffffffffffffffffffffff1673ffffffffffffffffffffffffffffffffffffffff168152602001908152602001600020600082825403925050819055506001600360008473ffffffffffffffffffffffffffffffffffffffff1673ffffffffffffffffffffffffffffffffffffffff16815260200190815260200160002060008282540192505081905550816002600083815260200190815260200160002060006101000a81548173ffffffffffffffffffffffffffffffffffffffff021916908373ffffffffffffffffffffffffffffffffffffffff160217905550808273ffffffffffffffffffffffffffffffffffffffff168473ffffffffffffffffffffffffffffffffffffffff167fddf252ad1be2c89b69c2b068fc378daa952ba7f163c4a11628f55a4df523b3ef60405160405180910390a46111358383836001611613565b505050565b611142610cea565b73ffffffffffffffffffffffffffffffffffffffff1661116061087e565b73ffffffffffffffffffffffffffffffffffffffff16146111b6576040517f08c379a00000000000000000000000000000000000000000000000000000000081526004016111ad906127ee565b60405180910390fd5b565b60006002600083815260200190815260200160002060009054906101000a900473ffffffffffffffffffffffffffffffffffffffff169050919050565b600081600001549050919050565b6001816000016000828254019250508190555050565b611233828260405180602001604052806000815250611619565b5050565b6112408261153a565b61127f576040517f08c379a000000000000000000000000000000000000000000000000000000000815260040161127690612880565b60405180910390fd5b806009600084815260200190815260200160002090805190602001906112a6929190611a4c565b505050565b6000600660009054906101000a900473ffffffffffffffffffffffffffffffffffffffff16905081600660006101000a81548173ffffffffffffffffffffffffffffffffffffffff021916908373ffffffffffffffffffffffffffffffffffffffff1602179055508173ffffffffffffffffffffffffffffffffffffffff168173ffffffffffffffffffffffffffffffffffffffff167f8be0079c531659141344cd1fd0a4f28419497f9722a3daafe3b4186f6b6457e060405160405180910390a35050565b8173ffffffffffffffffffffffffffffffffffffffff168373ffffffffffffffffffffffffffffffffffffffff1614156113e0576040517f08c379a00000000000000000000000000000000000000000000000000000000081526004016113d7906128ec565b60405180910390fd5b80600560008573ffffffffffffffffffffffffffffffffffffffff1673ffffffffffffffffffffffffffffffffffffffff16815260200190815260200160002060008473ffffffffffffffffffffffffffffffffffffffff1673ffffffffffffffffffffffffffffffffffffffff16815260200190815260200160002060006101000a81548160ff0219169083151502179055508173ffffffffffffffffffffffffffffffffffffffff168373ffffffffffffffffffffffffffffffffffffffff167f17307eab39ab6107e8899845ad3d59bd9653f200f220920489ca2b5937696c31836040516114d19190611ba3565b60405180910390a3505050565b6114e9848484610e40565b6114f584848484611674565b611534576040517f08c379a000000000000000000000000000000000000000000000000000000000815260040161152b9061297e565b60405180910390fd5b50505050565b60008073ffffffffffffffffffffffffffffffffffffffff1661155c836111b8565b73ffffffffffffffffffffffffffffffffffffffff1614159050919050565b60606008805461158a906121cb565b80601f01602080910402602001604051908101604052809291908181526020018280546115b6906121cb565b80156116035780601f106115d857610100808354040283529160200191611603565b820191906000526020600020905b8154815290600101906020018083116115e657829003601f168201915b5050505050905090565b50505050565b50505050565b611623838361180b565b6116306000848484611674565b61166f576040517f08c379a00000000000000000000000000000000000000000000000000000000081526004016116669061297e565b60405180910390fd5b505050565b60006116958473ffffffffffffffffffffffffffffffffffffffff16611a29565b156117fe578373ffffffffffffffffffffffffffffffffffffffff1663150b7a026116be610cea565b8786866040518563ffffffff1660e01b81526004016116e094939291906129f3565b602060405180830381600087803b1580156116fa57600080fd5b505af192505050801561172b57506040513d601f19601f820116820180604052508101906117289190612a54565b60015b6117ae573d806000811461175b576040519150601f19603f3d011682016040523d82523d6000602084013e611760565b606091505b506000815114156117a6576040517f08c379a000000000000000000000000000000000000000000000000000000000815260040161179d9061297e565b60405180910390fd5b805181602001fd5b63150b7a0260e01b7bffffffffffffffffffffffffffffffffffffffffffffffffffffffff1916817bffffffffffffffffffffffffffffffffffffffffffffffffffffffff191614915050611803565b600190505b949350505050565b600073ffffffffffffffffffffffffffffffffffffffff168273ffffffffffffffffffffffffffffffffffffffff16141561187b576040517f08c379a000000000000000000000000000000000000000000000000000000000815260040161187290612acd565b60405180910390fd5b6118848161153a565b156118c4576040517f08c379a00000000000000000000000000000000000000000000000000000000081526004016118bb90612b39565b60405180910390fd5b6118d260008383600161160d565b6118db8161153a565b1561191b576040517f08c379a000000000000000000000000000000000000000000000000000000000815260040161191290612b39565b60405180910390fd5b6001600360008473ffffffffffffffffffffffffffffffffffffffff1673ffffffffffffffffffffffffffffffffffffffff16815260200190815260200160002060008282540192505081905550816002600083815260200190815260200160002060006101000a81548173ffffffffffffffffffffffffffffffffffffffff021916908373ffffffffffffffffffffffffffffffffffffffff160217905550808273ffffffffffffffffffffffffffffffffffffffff16600073ffffffffffffffffffffffffffffffffffffffff167fddf252ad1be2c89b69c2b068fc378daa952ba7f163c4a11628f55a4df523b3ef60405160405180910390a4611a25600083836001611613565b5050565b6000808273ffffffffffffffffffffffffffffffffffffffff163b119050919050565b828054611a58906121cb565b90600052602060002090601f016020900481019282611a7a5760008555611ac1565b82601f10611a9357805160ff1916838001178555611ac1565b82800160010185558215611ac1579182015b82811115611ac0578251825591602001919060010190611aa5565b5b509050611ace9190611ad2565b5090565b5b80821115611aeb576000816000905550600101611ad3565b5090565b6000604051905090565b600080fd5b600080fd5b60007fffffffff0000000000000000000000000000000000000000000000000000000082169050919050565b611b3881611b03565b8114611b4357600080fd5b50565b600081359050611b5581611b2f565b92915050565b600060208284031215611b7157611b70611af9565b5b6000611b7f84828501611b46565b91505092915050565b60008115159050919050565b611b9d81611b88565b82525050565b6000602082019050611bb86000830184611b94565b92915050565b600081519050919050565b600082825260208201905092915050565b60005b83811015611bf8578082015181840152602081019050611bdd565b83811115611c07576000848401525b50505050565b6000601f19601f8301169050919050565b6000611c2982611bbe565b611c338185611bc9565b9350611c43818560208601611bda565b611c4c81611c0d565b840191505092915050565b60006020820190508181036000830152611c718184611c1e565b905092915050565b6000819050919050565b611c8c81611c79565b8114611c9757600080fd5b50565b600081359050611ca981611c83565b92915050565b600060208284031215611cc557611cc4611af9565b5b6000611cd384828501611c9a565b91505092915050565b600073ffffffffffffffffffffffffffffffffffffffff82169050919050565b6000611d0782611cdc565b9050919050565b611d1781611cfc565b82525050565b6000602082019050611d326000830184611d0e565b92915050565b611d4181611cfc565b8114611d4c57600080fd5b50565b600081359050611d5e81611d38565b92915050565b60008060408385031215611d7b57611d7a611af9565b5b6000611d8985828601611d4f565b9250506020611d9a85828601611c9a565b9150509250929050565b600080600060608486031215611dbd57611dbc611af9565b5b6000611dcb86828701611d4f565b9350506020611ddc86828701611d4f565b9250506040611ded86828701611c9a565b9150509250925092565b600080fd5b600080fd5b7f4e487b7100000000000000000000000000000000000000000000000000000000600052604160045260246000fd5b611e3982611c0d565b810181811067ffffffffffffffff82111715611e5857611e57611e01565b5b80604052505050565b6000611e6b611aef565b9050611e778282611e30565b919050565b600067ffffffffffffffff821115611e9757611e96611e01565b5b611ea082611c0d565b9050602081019050919050565b82818337600083830152505050565b6000611ecf611eca84611e7c565b611e61565b905082815260208101848484011115611eeb57611eea611dfc565b5b611ef6848285611ead565b509392505050565b600082601f830112611f1357611f12611df7565b5b8135611f23848260208601611ebc565b91505092915050565b600060208284031215611f4257611f41611af9565b5b600082013567ffffffffffffffff811115611f6057611f5f611afe565b5b611f6c84828501611efe565b91505092915050565b600060208284031215611f8b57611f8a611af9565b5b6000611f9984828501611d4f565b91505092915050565b611fab81611c79565b82525050565b6000602082019050611fc66000830184611fa2565b92915050565b611fd581611b88565b8114611fe057600080fd5b50565b600081359050611ff281611fcc565b92915050565b6000806040838503121561200f5761200e611af9565b5b600061201d85828601611d4f565b925050602061202e85828601611fe3565b9150509250929050565b600067ffffffffffffffff82111561205357612052611e01565b5b61205c82611c0d565b9050602081019050919050565b600061207c61207784612038565b611e61565b90508281526020810184848401111561209857612097611dfc565b5b6120a3848285611ead565b509392505050565b600082601f8301126120c0576120bf611df7565b5b81356120d0848260208601612069565b91505092915050565b600080600080608085870312156120f3576120f2611af9565b5b600061210187828801611d4f565b945050602061211287828801611d4f565b935050604061212387828801611c9a565b925050606085013567ffffffffffffffff81111561214457612143611afe565b5b612150878288016120ab565b91505092959194509250565b6000806040838503121561217357612172611af9565b5b600061218185828601611d4f565b925050602061219285828601611d4f565b9150509250929050565b7f4e487b7100000000000000000000000000000000000000000000000000000000600052602260045260246000fd5b600060028204905060018216806121e357607f821691505b602082108114156121f7576121f661219c565b5b50919050565b7f4552433732313a20617070726f76616c20746f2063757272656e74206f776e6560008201527f7200000000000000000000000000000000000000000000000000000000000000602082015250565b6000612259602183611bc9565b9150612264826121fd565b604082019050919050565b600060208201905081810360008301526122888161224c565b9050919050565b7f4552433732313a20617070726f76652063616c6c6572206973206e6f7420746f60008201527f6b656e206f776e6572206f7220617070726f76656420666f7220616c6c000000602082015250565b60006122eb603d83611bc9565b91506122f68261228f565b604082019050919050565b6000602082019050818103600083015261231a816122de565b9050919050565b7f4552433732313a2063616c6c6572206973206e6f7420746f6b656e206f776e6560008201527f72206f7220617070726f76656400000000000000000000000000000000000000602082015250565b600061237d602d83611bc9565b915061238882612321565b604082019050919050565b600060208201905081810360008301526123ac81612370565b9050919050565b7f4552433732313a20696e76616c696420746f6b656e2049440000000000000000600082015250565b60006123e9601883611bc9565b91506123f4826123b3565b602082019050919050565b60006020820190508181036000830152612418816123dc565b9050919050565b7f4552433732313a2061646472657373207a65726f206973206e6f74206120766160008201527f6c6964206f776e65720000000000000000000000000000000000000000000000602082015250565b600061247b602983611bc9565b91506124868261241f565b604082019050919050565b600060208201905081810360008301526124aa8161246e565b9050919050565b7f4552433732314d657461646174613a2055524920717565727920666f72206e6f60008201527f6e6578697374656e7420746f6b656e6e00000000000000000000000000000000602082015250565b600061250d603083611bc9565b9150612518826124b1565b604082019050919050565b6000602082019050818103600083015261253c81612500565b9050919050565b600081905092915050565b600061255982611bbe565b6125638185612543565b9350612573818560208601611bda565b80840191505092915050565b600061258b828561254e565b9150612597828461254e565b91508190509392505050565b6000819050919050565b6125be6125b982611c79565b6125a3565b82525050565b60006125d0828561254e565b91506125dc82846125ad565b6020820191508190509392505050565b7f4f776e61626c653a206e6577206f776e657220697320746865207a65726f206160008201527f6464726573730000000000000000000000000000000000000000000000000000602082015250565b6000612648602683611bc9565b9150612653826125ec565b604082019050919050565b600060208201905081810360008301526126778161263b565b9050919050565b7f4552433732313a207472616e736665722066726f6d20696e636f72726563742060008201527f6f776e6572000000000000000000000000000000000000000000000000000000602082015250565b60006126da602583611bc9565b91506126e58261267e565b604082019050919050565b60006020820190508181036000830152612709816126cd565b9050919050565b7f4552433732313a207472616e7366657220746f20746865207a65726f2061646460008201527f7265737300000000000000000000000000000000000000000000000000000000602082015250565b600061276c602483611bc9565b915061277782612710565b604082019050919050565b6000602082019050818103600083015261279b8161275f565b9050919050565b7f4f776e61626c653a2063616c6c6572206973206e6f7420746865206f776e6572600082015250565b60006127d8602083611bc9565b91506127e3826127a2565b602082019050919050565b60006020820190508181036000830152612807816127cb565b9050919050565b7f4552433732314d657461646174613a2055524920736574206f66206e6f6e657860008201527f697374656e7420746f6b656e0000000000000000000000000000000000000000602082015250565b600061286a602c83611bc9565b91506128758261280e565b604082019050919050565b600060208201905081810360008301526128998161285d565b9050919050565b7f4552433732313a20617070726f766520746f2063616c6c657200000000000000600082015250565b60006128d6601983611bc9565b91506128e1826128a0565b602082019050919050565b60006020820190508181036000830152612905816128c9565b9050919050565b7f4552433732313a207472616e7366657220746f206e6f6e20455243373231526560008201527f63656976657220696d706c656d656e7465720000000000000000000000000000602082015250565b6000612968603283611bc9565b91506129738261290c565b604082019050919050565b600060208201905081810360008301526129978161295b565b9050919050565b600081519050919050565b600082825260208201905092915050565b60006129c58261299e565b6129cf81856129a9565b93506129df818560208601611bda565b6129e881611c0d565b840191505092915050565b6000608082019050612a086000830187611d0e565b612a156020830186611d0e565b612a226040830185611fa2565b8181036060830152612a3481846129ba565b905095945050505050565b600081519050612a4e81611b2f565b92915050565b600060208284031215612a6a57612a69611af9565b5b6000612a7884828501612a3f565b91505092915050565b7f4552433732313a206d696e7420746f20746865207a65726f2061646472657373600082015250565b6000612ab7602083611bc9565b9150612ac282612a81565b602082019050919050565b60006020820190508181036000830152612ae681612aaa565b9050919050565b7f4552433732313a20746f6b656e20616c7265616479206d696e74656400000000600082015250565b6000612b23601c83611bc9565b9150612b2e82612aed565b602082019050919050565b60006020820190508181036000830152612b5281612b16565b905091905056fea2646970667358221220585e63461b2e4f220ca15903de2ede6b9b07449e65d7cc3ec049c8fc4258d16464736f6c63430008090033",
  "linkReferences": {},
  "deployedLinkReferences": {}
}