{
  "_format": "hh-sol-artifact-1",
  "contractName": "ERC721Contract",
  "sourceName": "contracts/ERC721Contract.sol",
  "abi": [
    {
      "inputs": [],
      "stateMutability": "nonpayable",
      "type": "constructor"
    },
    {
      "anonymous": false,
      "inputs": [
        {
          "indexed": true,
          "internalType": "address",
          "name": "owner",
          "type": "address"
        },
        {
          "indexed": true,
          "internalType": "address",
          "name": "approved",
          "type": "address"
        },
        {
          "indexed": true,
          "internalType": "uint256",
          "name": "tokenId",
          "type": "uint256"
        }
      ],
      "name": "Approval",
      "type": "event"
    },
    {
      "anonymous": false,
      "inputs": [
        {
          "indexed": true,
          "internalType": "address",
          "name": "owner",
          "type": "address"
        },
        {
          "indexed": true,
          "internalType": "address",
          "name": "operator",
          "type": "address"
        },
        {
          "indexed": false,
          "internalType": "bool",
          "name": "approved",
          "type": "bool"
        }
      ],
      "name": "ApprovalForAll",
      "type": "event"
    },
    {
      "anonymous": false,
      "inputs": [
        {
          "indexed": true,
          "internalType": "address",
          "name": "previousOwner",
          "type": "address"
        },
        {
          "indexed": true,
          "internalType": "address",
          "name": "newOwner",
          "type": "address"
        }
      ],
      "name": "OwnershipTransferred",
      "type": "event"
    },
    {
      "anonymous": false,
      "inputs": [
        {
          "indexed": true,
          "internalType": "address",
          "name": "from",
          "type": "address"
        },
        {
          "indexed": true,
          "internalType": "address",
          "name": "to",
          "type": "address"
        },
        {
          "indexed": true,
          "internalType": "uint256",
          "name": "tokenId",
          "type": "uint256"
        }
      ],
      "name": "Transfer",
      "type": "event"
    },
    {
      "inputs": [
        {
          "internalType": "address",
          "name": "to",
          "type": "address"
        },
        {
          "internalType": "uint256",
          "name": "tokenId",
          "type": "uint256"
        }
      ],
      "name": "approve",
      "outputs": [],
      "stateMutability": "nonpayable",
      "type": "function"
    },
    {
      "inputs": [
        {
          "internalType": "address",
          "name": "owner",
          "type": "address"
        }
      ],
      "name": "balanceOf",
      "outputs": [
        {
          "internalType": "uint256",
          "name": "",
          "type": "uint256"
        }
      ],
      "stateMutability": "view",
      "type": "function"
    },
    {
      "inputs": [
        {
          "internalType": "uint256",
          "name": "tokenId",
          "type": "uint256"
        }
      ],
      "name": "getApproved",
      "outputs": [
        {
          "internalType": "address",
          "name": "",
          "type": "address"
        }
      ],
      "stateMutability": "view",
      "type": "function"
    },
    {
      "inputs": [
        {
          "internalType": "address",
          "name": "owner",
          "type": "address"
        }
      ],
      "name": "getOwnedNFTs",
      "outputs": [
        {
          "internalType": "string[]",
          "name": "",
          "type": "string[]"
        }
      ],
      "stateMutability": "view",
      "type": "function"
    },
    {
      "inputs": [
        {
          "internalType": "address",
          "name": "owner",
          "type": "address"
        },
        {
          "internalType": "address",
          "name": "operator",
          "type": "address"
        }
      ],
      "name": "isApprovedForAll",
      "outputs": [
        {
          "internalType": "bool",
          "name": "",
          "type": "bool"
        }
      ],
      "stateMutability": "view",
      "type": "function"
    },
    {
      "inputs": [],
      "name": "name",
      "outputs": [
        {
          "internalType": "string",
          "name": "",
          "type": "string"
        }
      ],
      "stateMutability": "view",
      "type": "function"
    },
    {
      "inputs": [],
      "name": "owner",
      "outputs": [
        {
          "internalType": "address",
          "name": "",
          "type": "address"
        }
      ],
      "stateMutability": "view",
      "type": "function"
    },
    {
      "inputs": [
        {
          "internalType": "uint256",
          "name": "tokenId",
          "type": "uint256"
        }
      ],
      "name": "ownerOf",
      "outputs": [
        {
          "internalType": "address",
          "name": "",
          "type": "address"
        }
      ],
      "stateMutability": "view",
      "type": "function"
    },
    {
      "inputs": [],
      "name": "renounceOwnership",
      "outputs": [],
      "stateMutability": "nonpayable",
      "type": "function"
    },
    {
      "inputs": [
        {
          "internalType": "string",
          "name": "_tokenURI",
          "type": "string"
        }
      ],
      "name": "safeMint",
      "outputs": [
        {
          "internalType": "uint256",
          "name": "",
          "type": "uint256"
        }
      ],
      "stateMutability": "nonpayable",
      "type": "function"
    },
    {
      "inputs": [
        {
          "internalType": "address",
          "name": "from",
          "type": "address"
        },
        {
          "internalType": "address",
          "name": "to",
          "type": "address"
        },
        {
          "internalType": "uint256",
          "name": "tokenId",
          "type": "uint256"
        }
      ],
      "name": "safeTransferFrom",
      "outputs": [],
      "stateMutability": "nonpayable",
      "type": "function"
    },
    {
      "inputs": [
        {
          "internalType": "address",
          "name": "from",
          "type": "address"
        },
        {
          "internalType": "address",
          "name": "to",
          "type": "address"
        },
        {
          "internalType": "uint256",
          "name": "tokenId",
          "type": "uint256"
        },
        {
          "internalType": "bytes",
          "name": "data",
          "type": "bytes"
        }
      ],
      "name": "safeTransferFrom",
      "outputs": [],
      "stateMutability": "nonpayable",
      "type": "function"
    },
    {
      "inputs": [
        {
          "internalType": "address",
          "name": "operator",
          "type": "address"
        },
        {
          "internalType": "bool",
          "name": "approved",
          "type": "bool"
        }
      ],
      "name": "setApprovalForAll",
      "outputs": [],
      "stateMutability": "nonpayable",
      "type": "function"
    },
    {
      "inputs": [
        {
          "internalType": "string",
          "name": "baseURI_",
          "type": "string"
        }
      ],
      "name": "setBaseURI",
      "outputs": [],
      "stateMutability": "nonpayable",
      "type": "function"
    },
    {
      "inputs": [
        {
          "internalType": "bytes4",
          "name": "interfaceId",
          "type": "bytes4"
        }
      ],
      "name": "supportsInterface",
      "outputs": [
        {
          "internalType": "bool",
          "name": "",
          "type": "bool"
        }
      ],
      "stateMutability": "view",
      "type": "function"
    },
    {
      "inputs": [],
      "name": "symbol",
      "outputs": [
        {
          "internalType": "string",
          "name": "",
          "type": "string"
        }
      ],
      "stateMutability": "view",
      "type": "function"
    },
    {
      "inputs": [
        {
          "internalType": "uint256",
          "name": "tokenId",
          "type": "uint256"
        }
      ],
      "name": "tokenURI",
      "outputs": [
        {
          "internalType": "string",
          "name": "",
          "type": "string"
        }
      ],
      "stateMutability": "view",
      "type": "function"
    },
    {
      "inputs": [
        {
          "internalType": "address",
          "name": "from",
          "type": "address"
        },
        {
          "internalType": "address",
          "name": "to",
          "type": "address"
        },
        {
          "internalType": "uint256",
          "name": "tokenId",
          "type": "uint256"
        }
      ],
      "name": "transferFrom",
      "outputs": [],
      "stateMutability": "nonpayable",
      "type": "function"
    },
    {
      "inputs": [
        {
          "internalType": "address",
          "name": "newOwner",
          "type": "address"
        }
      ],
      "name": "transferOwnership",
      "outputs": [],
      "stateMutability": "nonpayable",
      "type": "function"
    }
  ],
  "bytecode": "0x60806040523480156200001157600080fd5b506040518060400160405280600781526020017f4d79546f6b656e000000000000000000000000000000000000000000000000008152506040518060400160405280600381526020017f4d544b0000000000000000000000000000000000000000000000000000000000815250816000908051906020019062000096929190620001a6565b508060019080519060200190620000af929190620001a6565b505050620000d2620000c6620000d860201b60201c565b620000e060201b60201c565b620002bb565b600033905090565b6000600660009054906101000a900473ffffffffffffffffffffffffffffffffffffffff16905081600660006101000a81548173ffffffffffffffffffffffffffffffffffffffff021916908373ffffffffffffffffffffffffffffffffffffffff1602179055508173ffffffffffffffffffffffffffffffffffffffff168173ffffffffffffffffffffffffffffffffffffffff167f8be0079c531659141344cd1fd0a4f28419497f9722a3daafe3b4186f6b6457e060405160405180910390a35050565b828054620001b49062000285565b90600052602060002090601f016020900481019282620001d8576000855562000224565b82601f10620001f357805160ff191683800117855562000224565b8280016001018555821562000224579182015b828111156200022357825182559160200191906001019062000206565b5b50905062000233919062000237565b5090565b5b808211156200025257600081600090555060010162000238565b5090565b7f4e487b7100000000000000000000000000000000000000000000000000000000600052602260045260246000fd5b600060028204905060018216806200029e57607f821691505b60208210811415620002b557620002b462000256565b5b50919050565b612fc680620002cb6000396000f3fe608060405234801561001057600080fd5b50600436106101215760003560e01c8063695850fb116100ad578063a22cb46511610071578063a22cb4651461031a578063b88d4fde14610336578063c87b56dd14610352578063e985e9c514610382578063f2fde38b146103b257610121565b8063695850fb1461027457806370a08231146102a4578063715018a6146102d45780638da5cb5b146102de57806395d89b41146102fc57610121565b806318148f1b116100f457806318148f1b146101c057806323b872dd146101f057806342842e0e1461020c57806355f804b3146102285780636352211e1461024457610121565b806301ffc9a71461012657806306fdde0314610156578063081812fc14610174578063095ea7b3146101a4575b600080fd5b610140600480360381019061013b9190611dbd565b6103ce565b60405161014d9190611e05565b60405180910390f35b61015e6104b0565b60405161016b9190611eb9565b60405180910390f35b61018e60048036038101906101899190611f11565b610542565b60405161019b9190611f7f565b60405180910390f35b6101be60048036038101906101b99190611fc6565b610588565b005b6101da60048036038101906101d59190612006565b6106a0565b6040516101e7919061213f565b60405180910390f35b61020a60048036038101906102059190612161565b61084f565b005b61022660048036038101906102219190612161565b6108af565b005b610242600480360381019061023d91906122e9565b6108cf565b005b61025e60048036038101906102599190611f11565b6108f1565b60405161026b9190611f7f565b60405180910390f35b61028e600480360381019061028991906122e9565b610978565b60405161029b9190612341565b60405180910390f35b6102be60048036038101906102b99190612006565b610a14565b6040516102cb9190612341565b60405180910390f35b6102dc610acc565b005b6102e6610ae0565b6040516102f39190611f7f565b60405180910390f35b610304610b0a565b6040516103119190611eb9565b60405180910390f35b610334600480360381019061032f9190612388565b610b9c565b005b610350600480360381019061034b9190612469565b610bb2565b005b61036c60048036038101906103679190611f11565b610c14565b6040516103799190611eb9565b60405180910390f35b61039c600480360381019061039791906124ec565b610d7f565b6040516103a99190611e05565b60405180910390f35b6103cc60048036038101906103c79190612006565b610e13565b005b60007f80ac58cd000000000000000000000000000000000000000000000000000000007bffffffffffffffffffffffffffffffffffffffffffffffffffffffff1916827bffffffffffffffffffffffffffffffffffffffffffffffffffffffff1916148061049957507f5b5e139f000000000000000000000000000000000000000000000000000000007bffffffffffffffffffffffffffffffffffffffffffffffffffffffff1916827bffffffffffffffffffffffffffffffffffffffffffffffffffffffff1916145b806104a957506104a882610e97565b5b9050919050565b6060600080546104bf9061255b565b80601f01602080910402602001604051908101604052809291908181526020018280546104eb9061255b565b80156105385780601f1061050d57610100808354040283529160200191610538565b820191906000526020600020905b81548152906001019060200180831161051b57829003601f168201915b5050505050905090565b600061054d82610f01565b6004600083815260200190815260200160002060009054906101000a900473ffffffffffffffffffffffffffffffffffffffff169050919050565b6000610593826108f1565b90508073ffffffffffffffffffffffffffffffffffffffff168373ffffffffffffffffffffffffffffffffffffffff161415610604576040517f08c379a00000000000000000000000000000000000000000000000000000000081526004016105fb906125ff565b60405180910390fd5b8073ffffffffffffffffffffffffffffffffffffffff16610623610f4c565b73ffffffffffffffffffffffffffffffffffffffff16148061065257506106518161064c610f4c565b610d7f565b5b610691576040517f08c379a000000000000000000000000000000000000000000000000000000000815260040161068890612691565b60405180910390fd5b61069b8383610f54565b505050565b60606000600a60008473ffffffffffffffffffffffffffffffffffffffff1673ffffffffffffffffffffffffffffffffffffffff16815260200190815260200160002080548060200260200160405190810160405280929190818152602001828054801561072d57602002820191906000526020600020905b815481526020019060010190808311610719575b505050505090506000815167ffffffffffffffff811115610751576107506121be565b5b60405190808252806020026020018201604052801561078457816020015b606081526020019060019003908161076f5790505b509050600084905060005b8351811015610843578173ffffffffffffffffffffffffffffffffffffffff166107d28583815181106107c5576107c46126b1565b5b60200260200101516108f1565b73ffffffffffffffffffffffffffffffffffffffff16141561083057610811848281518110610804576108036126b1565b5b6020026020010151610c14565b838281518110610824576108236126b1565b5b60200260200101819052505b808061083b9061270f565b91505061078f565b50819350505050919050565b61086061085a610f4c565b8261100d565b61089f576040517f08c379a0000000000000000000000000000000000000000000000000000000008152600401610896906127ca565b60405180910390fd5b6108aa8383836110a2565b505050565b6108ca83838360405180602001604052806000815250610bb2565b505050565b6108d761139c565b80600890805190602001906108ed929190611cae565b5050565b6000806108fd8361141a565b9050600073ffffffffffffffffffffffffffffffffffffffff168173ffffffffffffffffffffffffffffffffffffffff16141561096f576040517f08c379a000000000000000000000000000000000000000000000000000000000815260040161096690612836565b60405180910390fd5b80915050919050565b6000806109856007611457565b90506109916007611465565b61099b338261147b565b6109a58184611499565b600a60003373ffffffffffffffffffffffffffffffffffffffff1673ffffffffffffffffffffffffffffffffffffffff16815260200190815260200160002081908060018154018082558091505060019003906000526020600020016000909190919091505580915050919050565b60008073ffffffffffffffffffffffffffffffffffffffff168273ffffffffffffffffffffffffffffffffffffffff161415610a85576040517f08c379a0000000000000000000000000000000000000000000000000000000008152600401610a7c906128c8565b60405180910390fd5b600360008373ffffffffffffffffffffffffffffffffffffffff1673ffffffffffffffffffffffffffffffffffffffff168152602001908152602001600020549050919050565b610ad461139c565b610ade600061150d565b565b6000600660009054906101000a900473ffffffffffffffffffffffffffffffffffffffff16905090565b606060018054610b199061255b565b80601f0160208091040260200160405190810160405280929190818152602001828054610b459061255b565b8015610b925780601f10610b6757610100808354040283529160200191610b92565b820191906000526020600020905b815481529060010190602001808311610b7557829003601f168201915b5050505050905090565b610bae610ba7610f4c565b83836115d3565b5050565b610bc3610bbd610f4c565b8361100d565b610c02576040517f08c379a0000000000000000000000000000000000000000000000000000000008152600401610bf9906127ca565b60405180910390fd5b610c0e84848484611740565b50505050565b6060610c1f8261179c565b610c5e576040517f08c379a0000000000000000000000000000000000000000000000000000000008152600401610c559061295a565b60405180910390fd5b6000600960008481526020019081526020016000208054610c7e9061255b565b80601f0160208091040260200160405190810160405280929190818152602001828054610caa9061255b565b8015610cf75780601f10610ccc57610100808354040283529160200191610cf7565b820191906000526020600020905b815481529060010190602001808311610cda57829003601f168201915b505050505090506000610d086117dd565b9050600081511415610d1e578192505050610d7a565b600082511115610d53578082604051602001610d3b9291906129b6565b60405160208183030381529060405292505050610d7a565b8084604051602001610d669291906129fb565b604051602081830303815290604052925050505b919050565b6000600560008473ffffffffffffffffffffffffffffffffffffffff1673ffffffffffffffffffffffffffffffffffffffff16815260200190815260200160002060008373ffffffffffffffffffffffffffffffffffffffff1673ffffffffffffffffffffffffffffffffffffffff16815260200190815260200160002060009054906101000a900460ff16905092915050565b610e1b61139c565b600073ffffffffffffffffffffffffffffffffffffffff168173ffffffffffffffffffffffffffffffffffffffff161415610e8b576040517f08c379a0000000000000000000000000000000000000000000000000000000008152600401610e8290612a95565b60405180910390fd5b610e948161150d565b50565b60007f01ffc9a7000000000000000000000000000000000000000000000000000000007bffffffffffffffffffffffffffffffffffffffffffffffffffffffff1916827bffffffffffffffffffffffffffffffffffffffffffffffffffffffff1916149050919050565b610f0a8161179c565b610f49576040517f08c379a0000000000000000000000000000000000000000000000000000000008152600401610f4090612836565b60405180910390fd5b50565b600033905090565b816004600083815260200190815260200160002060006101000a81548173ffffffffffffffffffffffffffffffffffffffff021916908373ffffffffffffffffffffffffffffffffffffffff160217905550808273ffffffffffffffffffffffffffffffffffffffff16610fc7836108f1565b73ffffffffffffffffffffffffffffffffffffffff167f8c5be1e5ebec7d5bd14f71427d1e84f3dd0314c0f7b2291e5b200ac8c7c3b92560405160405180910390a45050565b600080611019836108f1565b90508073ffffffffffffffffffffffffffffffffffffffff168473ffffffffffffffffffffffffffffffffffffffff16148061105b575061105a8185610d7f565b5b8061109957508373ffffffffffffffffffffffffffffffffffffffff1661108184610542565b73ffffffffffffffffffffffffffffffffffffffff16145b91505092915050565b8273ffffffffffffffffffffffffffffffffffffffff166110c2826108f1565b73ffffffffffffffffffffffffffffffffffffffff1614611118576040517f08c379a000000000000000000000000000000000000000000000000000000000815260040161110f90612b27565b60405180910390fd5b600073ffffffffffffffffffffffffffffffffffffffff168273ffffffffffffffffffffffffffffffffffffffff161415611188576040517f08c379a000000000000000000000000000000000000000000000000000000000815260040161117f90612bb9565b60405180910390fd5b611195838383600161186f565b8273ffffffffffffffffffffffffffffffffffffffff166111b5826108f1565b73ffffffffffffffffffffffffffffffffffffffff161461120b576040517f08c379a000000000000000000000000000000000000000000000000000000000815260040161120290612b27565b60405180910390fd5b6004600082815260200190815260200160002060006101000a81549073ffffffffffffffffffffffffffffffffffffffff02191690556001600360008573ffffffffffffffffffffffffffffffffffffffff1673ffffffffffffffffffffffffffffffffffffffff168152602001908152602001600020600082825403925050819055506001600360008473ffffffffffffffffffffffffffffffffffffffff1673ffffffffffffffffffffffffffffffffffffffff16815260200190815260200160002060008282540192505081905550816002600083815260200190815260200160002060006101000a81548173ffffffffffffffffffffffffffffffffffffffff021916908373ffffffffffffffffffffffffffffffffffffffff160217905550808273ffffffffffffffffffffffffffffffffffffffff168473ffffffffffffffffffffffffffffffffffffffff167fddf252ad1be2c89b69c2b068fc378daa952ba7f163c4a11628f55a4df523b3ef60405160405180910390a46113978383836001611875565b505050565b6113a4610f4c565b73ffffffffffffffffffffffffffffffffffffffff166113c2610ae0565b73ffffffffffffffffffffffffffffffffffffffff1614611418576040517f08c379a000000000000000000000000000000000000000000000000000000000815260040161140f90612c25565b60405180910390fd5b565b60006002600083815260200190815260200160002060009054906101000a900473ffffffffffffffffffffffffffffffffffffffff169050919050565b600081600001549050919050565b6001816000016000828254019250508190555050565b61149582826040518060200160405280600081525061187b565b5050565b6114a28261179c565b6114e1576040517f08c379a00000000000000000000000000000000000000000000000000000000081526004016114d890612cb7565b60405180910390fd5b80600960008481526020019081526020016000209080519060200190611508929190611cae565b505050565b6000600660009054906101000a900473ffffffffffffffffffffffffffffffffffffffff16905081600660006101000a81548173ffffffffffffffffffffffffffffffffffffffff021916908373ffffffffffffffffffffffffffffffffffffffff1602179055508173ffffffffffffffffffffffffffffffffffffffff168173ffffffffffffffffffffffffffffffffffffffff167f8be0079c531659141344cd1fd0a4f28419497f9722a3daafe3b4186f6b6457e060405160405180910390a35050565b8173ffffffffffffffffffffffffffffffffffffffff168373ffffffffffffffffffffffffffffffffffffffff161415611642576040517f08c379a000000000000000000000000000000000000000000000000000000000815260040161163990612d23565b60405180910390fd5b80600560008573ffffffffffffffffffffffffffffffffffffffff1673ffffffffffffffffffffffffffffffffffffffff16815260200190815260200160002060008473ffffffffffffffffffffffffffffffffffffffff1673ffffffffffffffffffffffffffffffffffffffff16815260200190815260200160002060006101000a81548160ff0219169083151502179055508173ffffffffffffffffffffffffffffffffffffffff168373ffffffffffffffffffffffffffffffffffffffff167f17307eab39ab6107e8899845ad3d59bd9653f200f220920489ca2b5937696c31836040516117339190611e05565b60405180910390a3505050565b61174b8484846110a2565b611757848484846118d6565b611796576040517f08c379a000000000000000000000000000000000000000000000000000000000815260040161178d90612db5565b60405180910390fd5b50505050565b60008073ffffffffffffffffffffffffffffffffffffffff166117be8361141a565b73ffffffffffffffffffffffffffffffffffffffff1614159050919050565b6060600880546117ec9061255b565b80601f01602080910402602001604051908101604052809291908181526020018280546118189061255b565b80156118655780601f1061183a57610100808354040283529160200191611865565b820191906000526020600020905b81548152906001019060200180831161184857829003601f168201915b5050505050905090565b50505050565b50505050565b6118858383611a6d565b61189260008484846118d6565b6118d1576040517f08c379a00000000000000000000000000000000000000000000000000000000081526004016118c890612db5565b60405180910390fd5b505050565b60006118f78473ffffffffffffffffffffffffffffffffffffffff16611c8b565b15611a60578373ffffffffffffffffffffffffffffffffffffffff1663150b7a02611920610f4c565b8786866040518563ffffffff1660e01b81526004016119429493929190612e2a565b602060405180830381600087803b15801561195c57600080fd5b505af192505050801561198d57506040513d601f19601f8201168201806040525081019061198a9190612e8b565b60015b611a10573d80600081146119bd576040519150601f19603f3d011682016040523d82523d6000602084013e6119c2565b606091505b50600081511415611a08576040517f08c379a00000000000000000000000000000000000000000000000000000000081526004016119ff90612db5565b60405180910390fd5b805181602001fd5b63150b7a0260e01b7bffffffffffffffffffffffffffffffffffffffffffffffffffffffff1916817bffffffffffffffffffffffffffffffffffffffffffffffffffffffff191614915050611a65565b600190505b949350505050565b600073ffffffffffffffffffffffffffffffffffffffff168273ffffffffffffffffffffffffffffffffffffffff161415611add576040517f08c379a0000000000000000000000000000000000000000000000000000000008152600401611ad490612f04565b60405180910390fd5b611ae68161179c565b15611b26576040517f08c379a0000000000000000000000000000000000000000000000000000000008152600401611b1d90612f70565b60405180910390fd5b611b3460008383600161186f565b611b3d8161179c565b15611b7d576040517f08c379a0000000000000000000000000000000000000000000000000000000008152600401611b7490612f70565b60405180910390fd5b6001600360008473ffffffffffffffffffffffffffffffffffffffff1673ffffffffffffffffffffffffffffffffffffffff16815260200190815260200160002060008282540192505081905550816002600083815260200190815260200160002060006101000a81548173ffffffffffffffffffffffffffffffffffffffff021916908373ffffffffffffffffffffffffffffffffffffffff160217905550808273ffffffffffffffffffffffffffffffffffffffff16600073ffffffffffffffffffffffffffffffffffffffff167fddf252ad1be2c89b69c2b068fc378daa952ba7f163c4a11628f55a4df523b3ef60405160405180910390a4611c87600083836001611875565b5050565b6000808273ffffffffffffffffffffffffffffffffffffffff163b119050919050565b828054611cba9061255b565b90600052602060002090601f016020900481019282611cdc5760008555611d23565b82601f10611cf557805160ff1916838001178555611d23565b82800160010185558215611d23579182015b82811115611d22578251825591602001919060010190611d07565b5b509050611d309190611d34565b5090565b5b80821115611d4d576000816000905550600101611d35565b5090565b6000604051905090565b600080fd5b600080fd5b60007fffffffff0000000000000000000000000000000000000000000000000000000082169050919050565b611d9a81611d65565b8114611da557600080fd5b50565b600081359050611db781611d91565b92915050565b600060208284031215611dd357611dd2611d5b565b5b6000611de184828501611da8565b91505092915050565b60008115159050919050565b611dff81611dea565b82525050565b6000602082019050611e1a6000830184611df6565b92915050565b600081519050919050565b600082825260208201905092915050565b60005b83811015611e5a578082015181840152602081019050611e3f565b83811115611e69576000848401525b50505050565b6000601f19601f8301169050919050565b6000611e8b82611e20565b611e958185611e2b565b9350611ea5818560208601611e3c565b611eae81611e6f565b840191505092915050565b60006020820190508181036000830152611ed38184611e80565b905092915050565b6000819050919050565b611eee81611edb565b8114611ef957600080fd5b50565b600081359050611f0b81611ee5565b92915050565b600060208284031215611f2757611f26611d5b565b5b6000611f3584828501611efc565b91505092915050565b600073ffffffffffffffffffffffffffffffffffffffff82169050919050565b6000611f6982611f3e565b9050919050565b611f7981611f5e565b82525050565b6000602082019050611f946000830184611f70565b92915050565b611fa381611f5e565b8114611fae57600080fd5b50565b600081359050611fc081611f9a565b92915050565b60008060408385031215611fdd57611fdc611d5b565b5b6000611feb85828601611fb1565b9250506020611ffc85828601611efc565b9150509250929050565b60006020828403121561201c5761201b611d5b565b5b600061202a84828501611fb1565b91505092915050565b600081519050919050565b600082825260208201905092915050565b6000819050602082019050919050565b600082825260208201905092915050565b600061207b82611e20565b612085818561205f565b9350612095818560208601611e3c565b61209e81611e6f565b840191505092915050565b60006120b58383612070565b905092915050565b6000602082019050919050565b60006120d582612033565b6120df818561203e565b9350836020820285016120f18561204f565b8060005b8581101561212d578484038952815161210e85826120a9565b9450612119836120bd565b925060208a019950506001810190506120f5565b50829750879550505050505092915050565b6000602082019050818103600083015261215981846120ca565b905092915050565b60008060006060848603121561217a57612179611d5b565b5b600061218886828701611fb1565b935050602061219986828701611fb1565b92505060406121aa86828701611efc565b9150509250925092565b600080fd5b600080fd5b7f4e487b7100000000000000000000000000000000000000000000000000000000600052604160045260246000fd5b6121f682611e6f565b810181811067ffffffffffffffff82111715612215576122146121be565b5b80604052505050565b6000612228611d51565b905061223482826121ed565b919050565b600067ffffffffffffffff821115612254576122536121be565b5b61225d82611e6f565b9050602081019050919050565b82818337600083830152505050565b600061228c61228784612239565b61221e565b9050828152602081018484840111156122a8576122a76121b9565b5b6122b384828561226a565b509392505050565b600082601f8301126122d0576122cf6121b4565b5b81356122e0848260208601612279565b91505092915050565b6000602082840312156122ff576122fe611d5b565b5b600082013567ffffffffffffffff81111561231d5761231c611d60565b5b612329848285016122bb565b91505092915050565b61233b81611edb565b82525050565b60006020820190506123566000830184612332565b92915050565b61236581611dea565b811461237057600080fd5b50565b6000813590506123828161235c565b92915050565b6000806040838503121561239f5761239e611d5b565b5b60006123ad85828601611fb1565b92505060206123be85828601612373565b9150509250929050565b600067ffffffffffffffff8211156123e3576123e26121be565b5b6123ec82611e6f565b9050602081019050919050565b600061240c612407846123c8565b61221e565b905082815260208101848484011115612428576124276121b9565b5b61243384828561226a565b509392505050565b600082601f8301126124505761244f6121b4565b5b81356124608482602086016123f9565b91505092915050565b6000806000806080858703121561248357612482611d5b565b5b600061249187828801611fb1565b94505060206124a287828801611fb1565b93505060406124b387828801611efc565b925050606085013567ffffffffffffffff8111156124d4576124d3611d60565b5b6124e08782880161243b565b91505092959194509250565b6000806040838503121561250357612502611d5b565b5b600061251185828601611fb1565b925050602061252285828601611fb1565b9150509250929050565b7f4e487b7100000000000000000000000000000000000000000000000000000000600052602260045260246000fd5b6000600282049050600182168061257357607f821691505b602082108114156125875761258661252c565b5b50919050565b7f4552433732313a20617070726f76616c20746f2063757272656e74206f776e6560008201527f7200000000000000000000000000000000000000000000000000000000000000602082015250565b60006125e9602183611e2b565b91506125f48261258d565b604082019050919050565b60006020820190508181036000830152612618816125dc565b9050919050565b7f4552433732313a20617070726f76652063616c6c6572206973206e6f7420746f60008201527f6b656e206f776e6572206f7220617070726f76656420666f7220616c6c000000602082015250565b600061267b603d83611e2b565b91506126868261261f565b604082019050919050565b600060208201905081810360008301526126aa8161266e565b9050919050565b7f4e487b7100000000000000000000000000000000000000000000000000000000600052603260045260246000fd5b7f4e487b7100000000000000000000000000000000000000000000000000000000600052601160045260246000fd5b600061271a82611edb565b91507fffffffffffffffffffffffffffffffffffffffffffffffffffffffffffffffff82141561274d5761274c6126e0565b5b600182019050919050565b7f4552433732313a2063616c6c6572206973206e6f7420746f6b656e206f776e6560008201527f72206f7220617070726f76656400000000000000000000000000000000000000602082015250565b60006127b4602d83611e2b565b91506127bf82612758565b604082019050919050565b600060208201905081810360008301526127e3816127a7565b9050919050565b7f4552433732313a20696e76616c696420746f6b656e2049440000000000000000600082015250565b6000612820601883611e2b565b915061282b826127ea565b602082019050919050565b6000602082019050818103600083015261284f81612813565b9050919050565b7f4552433732313a2061646472657373207a65726f206973206e6f74206120766160008201527f6c6964206f776e65720000000000000000000000000000000000000000000000602082015250565b60006128b2602983611e2b565b91506128bd82612856565b604082019050919050565b600060208201905081810360008301526128e1816128a5565b9050919050565b7f4552433732314d657461646174613a2055524920717565727920666f72206e6f60008201527f6e6578697374656e7420746f6b656e0000000000000000000000000000000000602082015250565b6000612944602f83611e2b565b915061294f826128e8565b604082019050919050565b6000602082019050818103600083015261297381612937565b9050919050565b600081905092915050565b600061299082611e20565b61299a818561297a565b93506129aa818560208601611e3c565b80840191505092915050565b60006129c28285612985565b91506129ce8284612985565b91508190509392505050565b6000819050919050565b6129f56129f082611edb565b6129da565b82525050565b6000612a078285612985565b9150612a1382846129e4565b6020820191508190509392505050565b7f4f776e61626c653a206e6577206f776e657220697320746865207a65726f206160008201527f6464726573730000000000000000000000000000000000000000000000000000602082015250565b6000612a7f602683611e2b565b9150612a8a82612a23565b604082019050919050565b60006020820190508181036000830152612aae81612a72565b9050919050565b7f4552433732313a207472616e736665722066726f6d20696e636f72726563742060008201527f6f776e6572000000000000000000000000000000000000000000000000000000602082015250565b6000612b11602583611e2b565b9150612b1c82612ab5565b604082019050919050565b60006020820190508181036000830152612b4081612b04565b9050919050565b7f4552433732313a207472616e7366657220746f20746865207a65726f2061646460008201527f7265737300000000000000000000000000000000000000000000000000000000602082015250565b6000612ba3602483611e2b565b9150612bae82612b47565b604082019050919050565b60006020820190508181036000830152612bd281612b96565b9050919050565b7f4f776e61626c653a2063616c6c6572206973206e6f7420746865206f776e6572600082015250565b6000612c0f602083611e2b565b9150612c1a82612bd9565b602082019050919050565b60006020820190508181036000830152612c3e81612c02565b9050919050565b7f4552433732314d657461646174613a2055524920736574206f66206e6f6e657860008201527f697374656e7420746f6b656e0000000000000000000000000000000000000000602082015250565b6000612ca1602c83611e2b565b9150612cac82612c45565b604082019050919050565b60006020820190508181036000830152612cd081612c94565b9050919050565b7f4552433732313a20617070726f766520746f2063616c6c657200000000000000600082015250565b6000612d0d601983611e2b565b9150612d1882612cd7565b602082019050919050565b60006020820190508181036000830152612d3c81612d00565b9050919050565b7f4552433732313a207472616e7366657220746f206e6f6e20455243373231526560008201527f63656976657220696d706c656d656e7465720000000000000000000000000000602082015250565b6000612d9f603283611e2b565b9150612daa82612d43565b604082019050919050565b60006020820190508181036000830152612dce81612d92565b9050919050565b600081519050919050565b600082825260208201905092915050565b6000612dfc82612dd5565b612e068185612de0565b9350612e16818560208601611e3c565b612e1f81611e6f565b840191505092915050565b6000608082019050612e3f6000830187611f70565b612e4c6020830186611f70565b612e596040830185612332565b8181036060830152612e6b8184612df1565b905095945050505050565b600081519050612e8581611d91565b92915050565b600060208284031215612ea157612ea0611d5b565b5b6000612eaf84828501612e76565b91505092915050565b7f4552433732313a206d696e7420746f20746865207a65726f2061646472657373600082015250565b6000612eee602083611e2b565b9150612ef982612eb8565b602082019050919050565b60006020820190508181036000830152612f1d81612ee1565b9050919050565b7f4552433732313a20746f6b656e20616c7265616479206d696e74656400000000600082015250565b6000612f5a601c83611e2b565b9150612f6582612f24565b602082019050919050565b60006020820190508181036000830152612f8981612f4d565b905091905056fea2646970667358221220832fc62037fe754be67d4eac19464ac6e650632db319aef1642128fc2c0f30e264736f6c63430008090033",
  "linkReferences": {},
  "deployedLinkReferences": {}
}