{
  "_format": "hh-sol-artifact-1",
  "contractName": "NFTMarketplace",
  "sourceName": "contracts/NFTMarketplace.sol",
  "abi": [
    {
      "inputs": [],
      "stateMutability": "nonpayable",
      "type": "constructor"
    },
    {
      "anonymous": false,
      "inputs": [
        {
          "indexed": true,
          "internalType": "address",
          "name": "owner",
          "type": "address"
        },
        {
          "indexed": true,
          "internalType": "address",
          "name": "approved",
          "type": "address"
        },
        {
          "indexed": true,
          "internalType": "uint256",
          "name": "tokenId",
          "type": "uint256"
        }
      ],
      "name": "Approval",
      "type": "event"
    },
    {
      "anonymous": false,
      "inputs": [
        {
          "indexed": true,
          "internalType": "address",
          "name": "owner",
          "type": "address"
        },
        {
          "indexed": true,
          "internalType": "address",
          "name": "operator",
          "type": "address"
        },
        {
          "indexed": false,
          "internalType": "bool",
          "name": "approved",
          "type": "bool"
        }
      ],
      "name": "ApprovalForAll",
      "type": "event"
    },
    {
      "anonymous": false,
      "inputs": [
        {
          "indexed": false,
          "internalType": "uint256",
          "name": "_fromTokenId",
          "type": "uint256"
        },
        {
          "indexed": false,
          "internalType": "uint256",
          "name": "_toTokenId",
          "type": "uint256"
        }
      ],
      "name": "BatchMetadataUpdate",
      "type": "event"
    },
    {
      "anonymous": false,
      "inputs": [
        {
          "indexed": false,
          "internalType": "uint256",
          "name": "_tokenId",
          "type": "uint256"
        }
      ],
      "name": "MetadataUpdate",
      "type": "event"
    },
    {
      "anonymous": false,
      "inputs": [
        {
          "indexed": true,
          "internalType": "address",
          "name": "from",
          "type": "address"
        },
        {
          "indexed": true,
          "internalType": "address",
          "name": "to",
          "type": "address"
        },
        {
          "indexed": true,
          "internalType": "uint256",
          "name": "tokenId",
          "type": "uint256"
        }
      ],
      "name": "Transfer",
      "type": "event"
    },
    {
      "anonymous": false,
      "inputs": [
        {
          "indexed": true,
          "internalType": "uint256",
          "name": "tokenId",
          "type": "uint256"
        },
        {
          "indexed": false,
          "internalType": "address",
          "name": "seller",
          "type": "address"
        },
        {
          "indexed": false,
          "internalType": "address",
          "name": "owner",
          "type": "address"
        },
        {
          "indexed": false,
          "internalType": "uint256",
          "name": "price",
          "type": "uint256"
        },
        {
          "indexed": false,
          "internalType": "bool",
          "name": "sold",
          "type": "bool"
        }
      ],
      "name": "idMarketItemCreated",
      "type": "event"
    },
    {
      "inputs": [
        {
          "internalType": "address",
          "name": "to",
          "type": "address"
        },
        {
          "internalType": "uint256",
          "name": "tokenId",
          "type": "uint256"
        }
      ],
      "name": "approve",
      "outputs": [],
      "stateMutability": "nonpayable",
      "type": "function"
    },
    {
      "inputs": [
        {
          "internalType": "address",
          "name": "owner",
          "type": "address"
        }
      ],
      "name": "balanceOf",
      "outputs": [
        {
          "internalType": "uint256",
          "name": "",
          "type": "uint256"
        }
      ],
      "stateMutability": "view",
      "type": "function"
    },
    {
      "inputs": [
        {
          "internalType": "uint256",
          "name": "tokenId",
          "type": "uint256"
        }
      ],
      "name": "createMarketSale",
      "outputs": [],
      "stateMutability": "payable",
      "type": "function"
    },
    {
      "inputs": [
        {
          "internalType": "string",
          "name": "tokenURI",
          "type": "string"
        },
        {
          "internalType": "uint256",
          "name": "price",
          "type": "uint256"
        }
      ],
      "name": "createToken",
      "outputs": [
        {
          "internalType": "uint256",
          "name": "",
          "type": "uint256"
        }
      ],
      "stateMutability": "payable",
      "type": "function"
    },
    {
      "inputs": [],
      "name": "fetchItemsListed",
      "outputs": [
        {
          "components": [
            {
              "internalType": "uint256",
              "name": "tokenId",
              "type": "uint256"
            },
            {
              "internalType": "address payable",
              "name": "seller",
              "type": "address"
            },
            {
              "internalType": "address payable",
              "name": "owner",
              "type": "address"
            },
            {
              "internalType": "uint256",
              "name": "price",
              "type": "uint256"
            },
            {
              "internalType": "bool",
              "name": "sold",
              "type": "bool"
            }
          ],
          "internalType": "struct NFTMarketplace.MarketItem[]",
          "name": "",
          "type": "tuple[]"
        }
      ],
      "stateMutability": "view",
      "type": "function"
    },
    {
      "inputs": [],
      "name": "fetchMarketItem",
      "outputs": [
        {
          "components": [
            {
              "internalType": "uint256",
              "name": "tokenId",
              "type": "uint256"
            },
            {
              "internalType": "address payable",
              "name": "seller",
              "type": "address"
            },
            {
              "internalType": "address payable",
              "name": "owner",
              "type": "address"
            },
            {
              "internalType": "uint256",
              "name": "price",
              "type": "uint256"
            },
            {
              "internalType": "bool",
              "name": "sold",
              "type": "bool"
            }
          ],
          "internalType": "struct NFTMarketplace.MarketItem[]",
          "name": "",
          "type": "tuple[]"
        }
      ],
      "stateMutability": "view",
      "type": "function"
    },
    {
      "inputs": [],
      "name": "fetchMyNFT",
      "outputs": [
        {
          "components": [
            {
              "internalType": "uint256",
              "name": "tokenId",
              "type": "uint256"
            },
            {
              "internalType": "address payable",
              "name": "seller",
              "type": "address"
            },
            {
              "internalType": "address payable",
              "name": "owner",
              "type": "address"
            },
            {
              "internalType": "uint256",
              "name": "price",
              "type": "uint256"
            },
            {
              "internalType": "bool",
              "name": "sold",
              "type": "bool"
            }
          ],
          "internalType": "struct NFTMarketplace.MarketItem[]",
          "name": "",
          "type": "tuple[]"
        }
      ],
      "stateMutability": "view",
      "type": "function"
    },
    {
      "inputs": [
        {
          "internalType": "uint256",
          "name": "tokenId",
          "type": "uint256"
        }
      ],
      "name": "getApproved",
      "outputs": [
        {
          "internalType": "address",
          "name": "",
          "type": "address"
        }
      ],
      "stateMutability": "view",
      "type": "function"
    },
    {
      "inputs": [],
      "name": "getListingPrice",
      "outputs": [
        {
          "internalType": "uint256",
          "name": "",
          "type": "uint256"
        }
      ],
      "stateMutability": "view",
      "type": "function"
    },
    {
      "inputs": [
        {
          "internalType": "address",
          "name": "owner",
          "type": "address"
        },
        {
          "internalType": "address",
          "name": "operator",
          "type": "address"
        }
      ],
      "name": "isApprovedForAll",
      "outputs": [
        {
          "internalType": "bool",
          "name": "",
          "type": "bool"
        }
      ],
      "stateMutability": "view",
      "type": "function"
    },
    {
      "inputs": [],
      "name": "name",
      "outputs": [
        {
          "internalType": "string",
          "name": "",
          "type": "string"
        }
      ],
      "stateMutability": "view",
      "type": "function"
    },
    {
      "inputs": [
        {
          "internalType": "uint256",
          "name": "tokenId",
          "type": "uint256"
        }
      ],
      "name": "ownerOf",
      "outputs": [
        {
          "internalType": "address",
          "name": "",
          "type": "address"
        }
      ],
      "stateMutability": "view",
      "type": "function"
    },
    {
      "inputs": [
        {
          "internalType": "uint256",
          "name": "tokenId",
          "type": "uint256"
        },
        {
          "internalType": "uint256",
          "name": "price",
          "type": "uint256"
        }
      ],
      "name": "reSellToken",
      "outputs": [],
      "stateMutability": "payable",
      "type": "function"
    },
    {
      "inputs": [
        {
          "internalType": "address",
          "name": "from",
          "type": "address"
        },
        {
          "internalType": "address",
          "name": "to",
          "type": "address"
        },
        {
          "internalType": "uint256",
          "name": "tokenId",
          "type": "uint256"
        }
      ],
      "name": "safeTransferFrom",
      "outputs": [],
      "stateMutability": "nonpayable",
      "type": "function"
    },
    {
      "inputs": [
        {
          "internalType": "address",
          "name": "from",
          "type": "address"
        },
        {
          "internalType": "address",
          "name": "to",
          "type": "address"
        },
        {
          "internalType": "uint256",
          "name": "tokenId",
          "type": "uint256"
        },
        {
          "internalType": "bytes",
          "name": "data",
          "type": "bytes"
        }
      ],
      "name": "safeTransferFrom",
      "outputs": [],
      "stateMutability": "nonpayable",
      "type": "function"
    },
    {
      "inputs": [
        {
          "internalType": "address",
          "name": "operator",
          "type": "address"
        },
        {
          "internalType": "bool",
          "name": "approved",
          "type": "bool"
        }
      ],
      "name": "setApprovalForAll",
      "outputs": [],
      "stateMutability": "nonpayable",
      "type": "function"
    },
    {
      "inputs": [
        {
          "internalType": "bytes4",
          "name": "interfaceId",
          "type": "bytes4"
        }
      ],
      "name": "supportsInterface",
      "outputs": [
        {
          "internalType": "bool",
          "name": "",
          "type": "bool"
        }
      ],
      "stateMutability": "view",
      "type": "function"
    },
    {
      "inputs": [],
      "name": "symbol",
      "outputs": [
        {
          "internalType": "string",
          "name": "",
          "type": "string"
        }
      ],
      "stateMutability": "view",
      "type": "function"
    },
    {
      "inputs": [
        {
          "internalType": "uint256",
          "name": "tokenId",
          "type": "uint256"
        }
      ],
      "name": "tokenURI",
      "outputs": [
        {
          "internalType": "string",
          "name": "",
          "type": "string"
        }
      ],
      "stateMutability": "view",
      "type": "function"
    },
    {
      "inputs": [
        {
          "internalType": "address",
          "name": "from",
          "type": "address"
        },
        {
          "internalType": "address",
          "name": "to",
          "type": "address"
        },
        {
          "internalType": "uint256",
          "name": "tokenId",
          "type": "uint256"
        }
      ],
      "name": "transferFrom",
      "outputs": [],
      "stateMutability": "nonpayable",
      "type": "function"
    },
    {
      "inputs": [
        {
          "internalType": "uint256",
          "name": "_listingPrice",
          "type": "uint256"
        }
      ],
      "name": "updateListingPrice",
      "outputs": [],
      "stateMutability": "payable",
      "type": "function"
    }
  ],
  "bytecode": "0x60806040526605543df729c0006009553480156200001c57600080fd5b506040518060400160405280601381526020017f4e4654204d657461766172736520546f6b656e000000000000000000000000008152506040518060400160405280600581526020017f4d594e46540000000000000000000000000000000000000000000000000000008152508160009080519060200190620000a1929190620000e9565b508060019080519060200190620000ba929190620000e9565b5050503373ffffffffffffffffffffffffffffffffffffffff16600a60009054906101000a90505050620001fe565b828054620000f79062000199565b90600052602060002090601f0160209004810192826200011b576000855562000167565b82601f106200013657805160ff191683800117855562000167565b8280016001018555821562000167579182015b828111156200016657825182559160200191906001019062000149565b5b5090506200017691906200017a565b5090565b5b80821115620001955760008160009055506001016200017b565b5090565b60006002820490506001821680620001b257607f821691505b60208210811415620001c957620001c8620001cf565b5b50919050565b7f4e487b7100000000000000000000000000000000000000000000000000000000600052602260045260246000fd5b61433a806200020e6000396000f3fe60806040526004361061012a5760003560e01c806372b3b620116100ab578063ae677aa31161006f578063ae677aa3146103ea578063b88d4fde14610406578063be9af5361461042f578063c18763f71461044b578063c87b56dd14610476578063e985e9c5146104b35761012a565b806372b3b6201461031f57806385535b251461034f5780638fafd0211461036b57806395d89b4114610396578063a22cb465146103c15761012a565b806323b872dd116100f257806323b872dd1461022857806342842e0e1461025157806345f8fa801461027a5780636352211e146102a557806370a08231146102e25761012a565b806301ffc9a71461012f57806306fdde031461016c578063081812fc14610197578063095ea7b3146101d457806312e85585146101fd575b600080fd5b34801561013b57600080fd5b50610156600480360381019061015191906130e7565b6104f0565b6040516101639190613758565b60405180910390f35b34801561017857600080fd5b50610181610551565b60405161018e9190613773565b60405180910390f35b3480156101a357600080fd5b506101be60048036038101906101b9919061318d565b6105e3565b6040516101cb919061368a565b60405180910390f35b3480156101e057600080fd5b506101fb60048036038101906101f691906130ab565b610629565b005b34801561020957600080fd5b50610212610741565b60405161021f91906139f5565b60405180910390f35b34801561023457600080fd5b5061024f600480360381019061024a9190612fa5565b61074b565b005b34801561025d57600080fd5b5061027860048036038101906102739190612fa5565b6107ab565b005b34801561028657600080fd5b5061028f6107cb565b60405161029c9190613736565b60405180910390f35b3480156102b157600080fd5b506102cc60048036038101906102c7919061318d565b610b05565b6040516102d9919061368a565b60405180910390f35b3480156102ee57600080fd5b5061030960048036038101906103049190612f40565b610b8c565b60405161031691906139f5565b60405180910390f35b61033960048036038101906103349190613139565b610c44565b60405161034691906139f5565b60405180910390f35b610369600480360381019061036491906131b6565b610c86565b005b34801561037757600080fd5b50610380610e7b565b60405161038d9190613736565b60405180910390f35b3480156103a257600080fd5b506103ab611130565b6040516103b89190613773565b60405180910390f35b3480156103cd57600080fd5b506103e860048036038101906103e3919061306f565b6111c2565b005b61040460048036038101906103ff919061318d565b6111d8565b005b34801561041257600080fd5b5061042d60048036038101906104289190612ff4565b611272565b005b6104496004803603810190610444919061318d565b6112d4565b005b34801561045757600080fd5b5061046061150c565b60405161046d9190613736565b60405180910390f35b34801561048257600080fd5b5061049d6004803603810190610498919061318d565b611846565b6040516104aa9190613773565b60405180910390f35b3480156104bf57600080fd5b506104da60048036038101906104d59190612f69565b611959565b6040516104e79190613758565b60405180910390f35b6000634906490660e01b7bffffffffffffffffffffffffffffffffffffffffffffffffffffffff1916827bffffffffffffffffffffffffffffffffffffffffffffffffffffffff1916148061054a5750610549826119ed565b5b9050919050565b60606000805461056090613c65565b80601f016020809104026020016040519081016040528092919081815260200182805461058c90613c65565b80156105d95780601f106105ae576101008083540402835291602001916105d9565b820191906000526020600020905b8154815290600101906020018083116105bc57829003601f168201915b5050505050905090565b60006105ee82611acf565b6004600083815260200190815260200160002060009054906101000a900473ffffffffffffffffffffffffffffffffffffffff169050919050565b600061063482610b05565b90508073ffffffffffffffffffffffffffffffffffffffff168373ffffffffffffffffffffffffffffffffffffffff1614156106a5576040517f08c379a000000000000000000000000000000000000000000000000000000000815260040161069c90613975565b60405180910390fd5b8073ffffffffffffffffffffffffffffffffffffffff166106c4611b1a565b73ffffffffffffffffffffffffffffffffffffffff1614806106f357506106f2816106ed611b1a565b611959565b5b610732576040517f08c379a0000000000000000000000000000000000000000000000000000000008152600401610729906139d5565b60405180910390fd5b61073c8383611b22565b505050565b6000600954905090565b61075c610756611b1a565b82611bdb565b61079b576040517f08c379a000000000000000000000000000000000000000000000000000000000815260040161079290613795565b60405180910390fd5b6107a6838383611c70565b505050565b6107c683838360405180602001604052806000815250611272565b505050565b606060006107d96007611f6a565b905060008060005b83811015610882573373ffffffffffffffffffffffffffffffffffffffff16600b60006001846108119190613b13565b815260200190815260200160002060010160009054906101000a900473ffffffffffffffffffffffffffffffffffffffff1673ffffffffffffffffffffffffffffffffffffffff16141561086f5760018361086c9190613b13565b92505b808061087a90613cc8565b9150506107e1565b5060008267ffffffffffffffff8111156108c5577f4e487b7100000000000000000000000000000000000000000000000000000000600052604160045260246000fd5b6040519080825280602002602001820160405280156108fe57816020015b6108eb612d07565b8152602001906001900390816108e35790505b50905060005b84811015610afa573373ffffffffffffffffffffffffffffffffffffffff16600b60006001846109349190613b13565b815260200190815260200160002060010160009054906101000a900473ffffffffffffffffffffffffffffffffffffffff1673ffffffffffffffffffffffffffffffffffffffff161415610ae75760006001826109919190613b13565b90506000600b60008381526020019081526020016000209050806040518060a0016040529081600082015481526020016001820160009054906101000a900473ffffffffffffffffffffffffffffffffffffffff1673ffffffffffffffffffffffffffffffffffffffff1673ffffffffffffffffffffffffffffffffffffffff1681526020016002820160009054906101000a900473ffffffffffffffffffffffffffffffffffffffff1673ffffffffffffffffffffffffffffffffffffffff1673ffffffffffffffffffffffffffffffffffffffff168152602001600382015481526020016004820160009054906101000a900460ff161515151581525050848681518110610aca577f4e487b7100000000000000000000000000000000000000000000000000000000600052603260045260246000fd5b6020026020010181905250600185610ae29190613b13565b945050505b8080610af290613cc8565b915050610904565b508094505050505090565b600080610b1183611f78565b9050600073ffffffffffffffffffffffffffffffffffffffff168173ffffffffffffffffffffffffffffffffffffffff161415610b83576040517f08c379a0000000000000000000000000000000000000000000000000000000008152600401610b7a90613955565b60405180910390fd5b80915050919050565b60008073ffffffffffffffffffffffffffffffffffffffff168273ffffffffffffffffffffffffffffffffffffffff161415610bfd576040517f08c379a0000000000000000000000000000000000000000000000000000000008152600401610bf490613875565b60405180910390fd5b600360008373ffffffffffffffffffffffffffffffffffffffff1673ffffffffffffffffffffffffffffffffffffffff168152602001908152602001600020549050919050565b6000610c506007611fb5565b6000610c5c6007611f6a565b9050610c683382611fcb565b610c7281856121e9565b610c7c8184612294565b8091505092915050565b3373ffffffffffffffffffffffffffffffffffffffff16600b600084815260200190815260200160002060020160009054906101000a900473ffffffffffffffffffffffffffffffffffffffff1673ffffffffffffffffffffffffffffffffffffffff1614610d2a576040517f08c379a0000000000000000000000000000000000000000000000000000000008152600401610d21906138f5565b60405180910390fd5b6009543414610d6e576040517f08c379a0000000000000000000000000000000000000000000000000000000008152600401610d65906139b5565b60405180910390fd5b6000600b600084815260200190815260200160002060040160006101000a81548160ff02191690831515021790555080600b60008481526020019081526020016000206003018190555033600b600084815260200190815260200160002060010160006101000a81548173ffffffffffffffffffffffffffffffffffffffff021916908373ffffffffffffffffffffffffffffffffffffffff16021790555030600b600084815260200190815260200160002060020160006101000a81548173ffffffffffffffffffffffffffffffffffffffff021916908373ffffffffffffffffffffffffffffffffffffffff160217905550610e6c6008612497565b610e77333084611c70565b5050565b60606000610e896007611f6a565b90506000610e976008611f6a565b610ea16007611f6a565b610eab9190613b69565b90506000808267ffffffffffffffff811115610ef0577f4e487b7100000000000000000000000000000000000000000000000000000000600052604160045260246000fd5b604051908082528060200260200182016040528015610f2957816020015b610f16612d07565b815260200190600190039081610f0e5790505b50905060005b84811015611125573073ffffffffffffffffffffffffffffffffffffffff16600b6000600184610f5f9190613b13565b815260200190815260200160002060020160009054906101000a900473ffffffffffffffffffffffffffffffffffffffff1673ffffffffffffffffffffffffffffffffffffffff161415611112576000600182610fbc9190613b13565b90506000600b60008381526020019081526020016000209050806040518060a0016040529081600082015481526020016001820160009054906101000a900473ffffffffffffffffffffffffffffffffffffffff1673ffffffffffffffffffffffffffffffffffffffff1673ffffffffffffffffffffffffffffffffffffffff1681526020016002820160009054906101000a900473ffffffffffffffffffffffffffffffffffffffff1673ffffffffffffffffffffffffffffffffffffffff1673ffffffffffffffffffffffffffffffffffffffff168152602001600382015481526020016004820160009054906101000a900460ff1615151515815250508486815181106110f5577f4e487b7100000000000000000000000000000000000000000000000000000000600052603260045260246000fd5b602002602001018190525060018561110d9190613b13565b945050505b808061111d90613cc8565b915050610f2f565b508094505050505090565b60606001805461113f90613c65565b80601f016020809104026020016040519081016040528092919081815260200182805461116b90613c65565b80156111b85780601f1061118d576101008083540402835291602001916111b8565b820191906000526020600020905b81548152906001019060200180831161119b57829003601f168201915b5050505050905090565b6111d46111cd611b1a565b83836124f3565b5050565b600a60009054906101000a900473ffffffffffffffffffffffffffffffffffffffff1673ffffffffffffffffffffffffffffffffffffffff163373ffffffffffffffffffffffffffffffffffffffff1614611268576040517f08c379a000000000000000000000000000000000000000000000000000000000815260040161125f90613935565b60405180910390fd5b8060098190555050565b61128361127d611b1a565b83611bdb565b6112c2576040517f08c379a00000000000000000000000000000000000000000000000000000000081526004016112b990613795565b60405180910390fd5b6112ce84848484612660565b50505050565b6000600b6000838152602001908152602001600020600301549050803414611331576040517f08c379a0000000000000000000000000000000000000000000000000000000008152600401611328906138b5565b60405180910390fd5b33600b600084815260200190815260200160002060020160006101000a81548173ffffffffffffffffffffffffffffffffffffffff021916908373ffffffffffffffffffffffffffffffffffffffff1602179055506001600b600084815260200190815260200160002060040160006101000a81548160ff0219169083151502179055506000600b600084815260200190815260200160002060020160006101000a81548173ffffffffffffffffffffffffffffffffffffffff021916908373ffffffffffffffffffffffffffffffffffffffff1602179055506114156008611fb5565b611420303384611c70565b600a60009054906101000a900473ffffffffffffffffffffffffffffffffffffffff1673ffffffffffffffffffffffffffffffffffffffff166108fc6009549081150290604051600060405180830381858888f1935050505015801561148a573d6000803e3d6000fd5b50600b600083815260200190815260200160002060010160009054906101000a900473ffffffffffffffffffffffffffffffffffffffff1673ffffffffffffffffffffffffffffffffffffffff166108fc349081150290604051600060405180830381858888f19350505050158015611507573d6000803e3d6000fd5b505050565b6060600061151a6007611f6a565b905060008060005b838110156115c3573373ffffffffffffffffffffffffffffffffffffffff16600b60006001846115529190613b13565b815260200190815260200160002060020160009054906101000a900473ffffffffffffffffffffffffffffffffffffffff1673ffffffffffffffffffffffffffffffffffffffff1614156115b0576001836115ad9190613b13565b92505b80806115bb90613cc8565b915050611522565b5060008267ffffffffffffffff811115611606577f4e487b7100000000000000000000000000000000000000000000000000000000600052604160045260246000fd5b60405190808252806020026020018201604052801561163f57816020015b61162c612d07565b8152602001906001900390816116245790505b50905060005b8481101561183b573373ffffffffffffffffffffffffffffffffffffffff16600b60006001846116759190613b13565b815260200190815260200160002060020160009054906101000a900473ffffffffffffffffffffffffffffffffffffffff1673ffffffffffffffffffffffffffffffffffffffff1614156118285760006001826116d29190613b13565b90506000600b60008381526020019081526020016000209050806040518060a0016040529081600082015481526020016001820160009054906101000a900473ffffffffffffffffffffffffffffffffffffffff1673ffffffffffffffffffffffffffffffffffffffff1673ffffffffffffffffffffffffffffffffffffffff1681526020016002820160009054906101000a900473ffffffffffffffffffffffffffffffffffffffff1673ffffffffffffffffffffffffffffffffffffffff1673ffffffffffffffffffffffffffffffffffffffff168152602001600382015481526020016004820160009054906101000a900460ff16151515158152505084868151811061180b577f4e487b7100000000000000000000000000000000000000000000000000000000600052603260045260246000fd5b60200260200101819052506001856118239190613b13565b945050505b808061183390613cc8565b915050611645565b508094505050505090565b606061185182611acf565b600060066000848152602001908152602001600020805461187190613c65565b80601f016020809104026020016040519081016040528092919081815260200182805461189d90613c65565b80156118ea5780601f106118bf576101008083540402835291602001916118ea565b820191906000526020600020905b8154815290600101906020018083116118cd57829003601f168201915b5050505050905060006118fb6126bc565b9050600081511415611911578192505050611954565b60008251111561194657808260405160200161192e929190613666565b60405160208183030381529060405292505050611954565b61194f846126d3565b925050505b919050565b6000600560008473ffffffffffffffffffffffffffffffffffffffff1673ffffffffffffffffffffffffffffffffffffffff16815260200190815260200160002060008373ffffffffffffffffffffffffffffffffffffffff1673ffffffffffffffffffffffffffffffffffffffff16815260200190815260200160002060009054906101000a900460ff16905092915050565b60007f80ac58cd000000000000000000000000000000000000000000000000000000007bffffffffffffffffffffffffffffffffffffffffffffffffffffffff1916827bffffffffffffffffffffffffffffffffffffffffffffffffffffffff19161480611ab857507f5b5e139f000000000000000000000000000000000000000000000000000000007bffffffffffffffffffffffffffffffffffffffffffffffffffffffff1916827bffffffffffffffffffffffffffffffffffffffffffffffffffffffff1916145b80611ac85750611ac78261273b565b5b9050919050565b611ad8816127a5565b611b17576040517f08c379a0000000000000000000000000000000000000000000000000000000008152600401611b0e90613955565b60405180910390fd5b50565b600033905090565b816004600083815260200190815260200160002060006101000a81548173ffffffffffffffffffffffffffffffffffffffff021916908373ffffffffffffffffffffffffffffffffffffffff160217905550808273ffffffffffffffffffffffffffffffffffffffff16611b9583610b05565b73ffffffffffffffffffffffffffffffffffffffff167f8c5be1e5ebec7d5bd14f71427d1e84f3dd0314c0f7b2291e5b200ac8c7c3b92560405160405180910390a45050565b600080611be783610b05565b90508073ffffffffffffffffffffffffffffffffffffffff168473ffffffffffffffffffffffffffffffffffffffff161480611c295750611c288185611959565b5b80611c6757508373ffffffffffffffffffffffffffffffffffffffff16611c4f846105e3565b73ffffffffffffffffffffffffffffffffffffffff16145b91505092915050565b8273ffffffffffffffffffffffffffffffffffffffff16611c9082610b05565b73ffffffffffffffffffffffffffffffffffffffff1614611ce6576040517f08c379a0000000000000000000000000000000000000000000000000000000008152600401611cdd906137f5565b60405180910390fd5b600073ffffffffffffffffffffffffffffffffffffffff168273ffffffffffffffffffffffffffffffffffffffff161415611d56576040517f08c379a0000000000000000000000000000000000000000000000000000000008152600401611d4d90613835565b60405180910390fd5b611d6383838360016127e6565b8273ffffffffffffffffffffffffffffffffffffffff16611d8382610b05565b73ffffffffffffffffffffffffffffffffffffffff1614611dd9576040517f08c379a0000000000000000000000000000000000000000000000000000000008152600401611dd0906137f5565b60405180910390fd5b6004600082815260200190815260200160002060006101000a81549073ffffffffffffffffffffffffffffffffffffffff02191690556001600360008573ffffffffffffffffffffffffffffffffffffffff1673ffffffffffffffffffffffffffffffffffffffff168152602001908152602001600020600082825403925050819055506001600360008473ffffffffffffffffffffffffffffffffffffffff1673ffffffffffffffffffffffffffffffffffffffff16815260200190815260200160002060008282540192505081905550816002600083815260200190815260200160002060006101000a81548173ffffffffffffffffffffffffffffffffffffffff021916908373ffffffffffffffffffffffffffffffffffffffff160217905550808273ffffffffffffffffffffffffffffffffffffffff168473ffffffffffffffffffffffffffffffffffffffff167fddf252ad1be2c89b69c2b068fc378daa952ba7f163c4a11628f55a4df523b3ef60405160405180910390a4611f6583838360016127ec565b505050565b600081600001549050919050565b60006002600083815260200190815260200160002060009054906101000a900473ffffffffffffffffffffffffffffffffffffffff169050919050565b6001816000016000828254019250508190555050565b600073ffffffffffffffffffffffffffffffffffffffff168273ffffffffffffffffffffffffffffffffffffffff16141561203b576040517f08c379a0000000000000000000000000000000000000000000000000000000008152600401612032906138d5565b60405180910390fd5b612044816127a5565b15612084576040517f08c379a000000000000000000000000000000000000000000000000000000000815260040161207b90613815565b60405180910390fd5b6120926000838360016127e6565b61209b816127a5565b156120db576040517f08c379a00000000000000000000000000000000000000000000000000000000081526004016120d290613815565b60405180910390fd5b6001600360008473ffffffffffffffffffffffffffffffffffffffff1673ffffffffffffffffffffffffffffffffffffffff16815260200190815260200160002060008282540192505081905550816002600083815260200190815260200160002060006101000a81548173ffffffffffffffffffffffffffffffffffffffff021916908373ffffffffffffffffffffffffffffffffffffffff160217905550808273ffffffffffffffffffffffffffffffffffffffff16600073ffffffffffffffffffffffffffffffffffffffff167fddf252ad1be2c89b69c2b068fc378daa952ba7f163c4a11628f55a4df523b3ef60405160405180910390a46121e56000838360016127ec565b5050565b6121f2826127a5565b612231576040517f08c379a000000000000000000000000000000000000000000000000000000000815260040161222890613895565b60405180910390fd5b80600660008481526020019081526020016000209080519060200190612258929190612d64565b507ff8e1a15aba9398e019f0b49df1a4fde98ee17ae345cb5f6b5e2c27f5033e8ce78260405161228891906139f5565b60405180910390a15050565b600081116122d7576040517f08c379a00000000000000000000000000000000000000000000000000000000081526004016122ce90613915565b60405180910390fd5b600954341461231b576040517f08c379a000000000000000000000000000000000000000000000000000000000815260040161231290613995565b60405180910390fd5b6040518060a001604052808381526020013373ffffffffffffffffffffffffffffffffffffffff1681526020013073ffffffffffffffffffffffffffffffffffffffff16815260200182815260200160001515815250600b60008481526020019081526020016000206000820151816000015560208201518160010160006101000a81548173ffffffffffffffffffffffffffffffffffffffff021916908373ffffffffffffffffffffffffffffffffffffffff16021790555060408201518160020160006101000a81548173ffffffffffffffffffffffffffffffffffffffff021916908373ffffffffffffffffffffffffffffffffffffffff1602179055506060820151816003015560808201518160040160006101000a81548160ff021916908315150217905550905050612454333084611c70565b817fdebdb32cb5230ab727c9c361b16fdb2015df225c10e6a3e7f60ecd5dc5be4516333084600060405161248b94939291906136a5565b60405180910390a25050565b600081600001549050600081116124e3576040517f08c379a00000000000000000000000000000000000000000000000000000000081526004016124da906137b5565b60405180910390fd5b6001810382600001819055505050565b8173ffffffffffffffffffffffffffffffffffffffff168373ffffffffffffffffffffffffffffffffffffffff161415612562576040517f08c379a000000000000000000000000000000000000000000000000000000000815260040161255990613855565b60405180910390fd5b80600560008573ffffffffffffffffffffffffffffffffffffffff1673ffffffffffffffffffffffffffffffffffffffff16815260200190815260200160002060008473ffffffffffffffffffffffffffffffffffffffff1673ffffffffffffffffffffffffffffffffffffffff16815260200190815260200160002060006101000a81548160ff0219169083151502179055508173ffffffffffffffffffffffffffffffffffffffff168373ffffffffffffffffffffffffffffffffffffffff167f17307eab39ab6107e8899845ad3d59bd9653f200f220920489ca2b5937696c31836040516126539190613758565b60405180910390a3505050565b61266b848484611c70565b612677848484846127f2565b6126b6576040517f08c379a00000000000000000000000000000000000000000000000000000000081526004016126ad906137d5565b60405180910390fd5b50505050565b606060405180602001604052806000815250905090565b60606126de82611acf565b60006126e86126bc565b905060008151116127085760405180602001604052806000815250612733565b8061271284612989565b604051602001612723929190613666565b6040516020818303038152906040525b915050919050565b60007f01ffc9a7000000000000000000000000000000000000000000000000000000007bffffffffffffffffffffffffffffffffffffffffffffffffffffffff1916827bffffffffffffffffffffffffffffffffffffffffffffffffffffffff1916149050919050565b60008073ffffffffffffffffffffffffffffffffffffffff166127c783611f78565b73ffffffffffffffffffffffffffffffffffffffff1614159050919050565b50505050565b50505050565b60006128138473ffffffffffffffffffffffffffffffffffffffff16612aad565b1561297c578373ffffffffffffffffffffffffffffffffffffffff1663150b7a0261283c611b1a565b8786866040518563ffffffff1660e01b815260040161285e94939291906136ea565b602060405180830381600087803b15801561287857600080fd5b505af19250505080156128a957506040513d601f19601f820116820180604052508101906128a69190613110565b60015b61292c573d80600081146128d9576040519150601f19603f3d011682016040523d82523d6000602084013e6128de565b606091505b50600081511415612924576040517f08c379a000000000000000000000000000000000000000000000000000000000815260040161291b906137d5565b60405180910390fd5b805181602001fd5b63150b7a0260e01b7bffffffffffffffffffffffffffffffffffffffffffffffffffffffff1916817bffffffffffffffffffffffffffffffffffffffffffffffffffffffff191614915050612981565b600190505b949350505050565b60606000600161299884612ad0565b01905060008167ffffffffffffffff8111156129dd577f4e487b7100000000000000000000000000000000000000000000000000000000600052604160045260246000fd5b6040519080825280601f01601f191660200182016040528015612a0f5781602001600182028036833780820191505090505b509050600082602001820190505b600115612aa2578080600190039150507f3031323334353637383961626364656600000000000000000000000000000000600a86061a8153600a8581612a8c577f4e487b7100000000000000000000000000000000000000000000000000000000600052601260045260246000fd5b0494506000851415612a9d57612aa2565b612a1d565b819350505050919050565b6000808273ffffffffffffffffffffffffffffffffffffffff163b119050919050565b600080600090507a184f03e93ff9f4daa797ed6e38ed64bf6a1f0100000000000000008310612b54577a184f03e93ff9f4daa797ed6e38ed64bf6a1f0100000000000000008381612b4a577f4e487b7100000000000000000000000000000000000000000000000000000000600052601260045260246000fd5b0492506040810190505b6d04ee2d6d415b85acef81000000008310612bb7576d04ee2d6d415b85acef81000000008381612bad577f4e487b7100000000000000000000000000000000000000000000000000000000600052601260045260246000fd5b0492506020810190505b662386f26fc100008310612c0c57662386f26fc100008381612c02577f4e487b7100000000000000000000000000000000000000000000000000000000600052601260045260246000fd5b0492506010810190505b6305f5e1008310612c5b576305f5e1008381612c51577f4e487b7100000000000000000000000000000000000000000000000000000000600052601260045260246000fd5b0492506008810190505b6127108310612ca6576127108381612c9c577f4e487b7100000000000000000000000000000000000000000000000000000000600052601260045260246000fd5b0492506004810190505b60648310612cef5760648381612ce5577f4e487b7100000000000000000000000000000000000000000000000000000000600052601260045260246000fd5b0492506002810190505b600a8310612cfe576001810190505b80915050919050565b6040518060a0016040528060008152602001600073ffffffffffffffffffffffffffffffffffffffff168152602001600073ffffffffffffffffffffffffffffffffffffffff168152602001600081526020016000151581525090565b828054612d7090613c65565b90600052602060002090601f016020900481019282612d925760008555612dd9565b82601f10612dab57805160ff1916838001178555612dd9565b82800160010185558215612dd9579182015b82811115612dd8578251825591602001919060010190612dbd565b5b509050612de69190612dea565b5090565b5b80821115612e03576000816000905550600101612deb565b5090565b6000612e1a612e1584613a35565b613a10565b905082815260208101848484011115612e3257600080fd5b612e3d848285613c23565b509392505050565b6000612e58612e5384613a66565b613a10565b905082815260208101848484011115612e7057600080fd5b612e7b848285613c23565b509392505050565b600081359050612e92816142a8565b92915050565b600081359050612ea7816142bf565b92915050565b600081359050612ebc816142d6565b92915050565b600081519050612ed1816142d6565b92915050565b600082601f830112612ee857600080fd5b8135612ef8848260208601612e07565b91505092915050565b600082601f830112612f1257600080fd5b8135612f22848260208601612e45565b91505092915050565b600081359050612f3a816142ed565b92915050565b600060208284031215612f5257600080fd5b6000612f6084828501612e83565b91505092915050565b60008060408385031215612f7c57600080fd5b6000612f8a85828601612e83565b9250506020612f9b85828601612e83565b9150509250929050565b600080600060608486031215612fba57600080fd5b6000612fc886828701612e83565b9350506020612fd986828701612e83565b9250506040612fea86828701612f2b565b9150509250925092565b6000806000806080858703121561300a57600080fd5b600061301887828801612e83565b945050602061302987828801612e83565b935050604061303a87828801612f2b565b925050606085013567ffffffffffffffff81111561305757600080fd5b61306387828801612ed7565b91505092959194509250565b6000806040838503121561308257600080fd5b600061309085828601612e83565b92505060206130a185828601612e98565b9150509250929050565b600080604083850312156130be57600080fd5b60006130cc85828601612e83565b92505060206130dd85828601612f2b565b9150509250929050565b6000602082840312156130f957600080fd5b600061310784828501612ead565b91505092915050565b60006020828403121561312257600080fd5b600061313084828501612ec2565b91505092915050565b6000806040838503121561314c57600080fd5b600083013567ffffffffffffffff81111561316657600080fd5b61317285828601612f01565b925050602061318385828601612f2b565b9150509250929050565b60006020828403121561319f57600080fd5b60006131ad84828501612f2b565b91505092915050565b600080604083850312156131c957600080fd5b60006131d785828601612f2b565b92505060206131e885828601612f2b565b9150509250929050565b60006131fe83836135e0565b60a08301905092915050565b61321381613baf565b82525050565b61322281613b9d565b82525050565b600061323382613aa7565b61323d8185613ad5565b935061324883613a97565b8060005b8381101561327957815161326088826131f2565b975061326b83613ac8565b92505060018101905061324c565b5085935050505092915050565b61328f81613bc1565b82525050565b61329e81613bc1565b82525050565b60006132af82613ab2565b6132b98185613ae6565b93506132c9818560208601613c32565b6132d281613d9e565b840191505092915050565b60006132e882613abd565b6132f28185613af7565b9350613302818560208601613c32565b61330b81613d9e565b840191505092915050565b600061332182613abd565b61332b8185613b08565b935061333b818560208601613c32565b80840191505092915050565b6000613354602d83613af7565b915061335f82613daf565b604082019050919050565b6000613377601b83613af7565b915061338282613dfe565b602082019050919050565b600061339a603283613af7565b91506133a582613e27565b604082019050919050565b60006133bd602583613af7565b91506133c882613e76565b604082019050919050565b60006133e0601c83613af7565b91506133eb82613ec5565b602082019050919050565b6000613403602483613af7565b915061340e82613eee565b604082019050919050565b6000613426601983613af7565b915061343182613f3d565b602082019050919050565b6000613449602983613af7565b915061345482613f66565b604082019050919050565b600061346c602e83613af7565b915061347782613fb5565b604082019050919050565b600061348f604083613af7565b915061349a82614004565b604082019050919050565b60006134b2602083613af7565b91506134bd82614053565b602082019050919050565b60006134d5602a83613af7565b91506134e08261407c565b604082019050919050565b60006134f8601783613af7565b9150613503826140cb565b602082019050919050565b600061351b603a83613af7565b9150613526826140f4565b604082019050919050565b600061353e601883613af7565b915061354982614143565b602082019050919050565b6000613561602183613af7565b915061356c8261416c565b604082019050919050565b6000613584602383613af7565b915061358f826141bb565b604082019050919050565b60006135a7602483613af7565b91506135b28261420a565b604082019050919050565b60006135ca603d83613af7565b91506135d582614259565b604082019050919050565b60a0820160008201516135f66000850182613648565b506020820151613609602085018261320a565b50604082015161361c604085018261320a565b50606082015161362f6060850182613648565b5060808201516136426080850182613286565b50505050565b61365181613c19565b82525050565b61366081613c19565b82525050565b60006136728285613316565b915061367e8284613316565b91508190509392505050565b600060208201905061369f6000830184613219565b92915050565b60006080820190506136ba6000830187613219565b6136c76020830186613219565b6136d46040830185613657565b6136e16060830184613295565b95945050505050565b60006080820190506136ff6000830187613219565b61370c6020830186613219565b6137196040830185613657565b818103606083015261372b81846132a4565b905095945050505050565b600060208201905081810360008301526137508184613228565b905092915050565b600060208201905061376d6000830184613295565b92915050565b6000602082019050818103600083015261378d81846132dd565b905092915050565b600060208201905081810360008301526137ae81613347565b9050919050565b600060208201905081810360008301526137ce8161336a565b9050919050565b600060208201905081810360008301526137ee8161338d565b9050919050565b6000602082019050818103600083015261380e816133b0565b9050919050565b6000602082019050818103600083015261382e816133d3565b9050919050565b6000602082019050818103600083015261384e816133f6565b9050919050565b6000602082019050818103600083015261386e81613419565b9050919050565b6000602082019050818103600083015261388e8161343c565b9050919050565b600060208201905081810360008301526138ae8161345f565b9050919050565b600060208201905081810360008301526138ce81613482565b9050919050565b600060208201905081810360008301526138ee816134a5565b9050919050565b6000602082019050818103600083015261390e816134c8565b9050919050565b6000602082019050818103600083015261392e816134eb565b9050919050565b6000602082019050818103600083015261394e8161350e565b9050919050565b6000602082019050818103600083015261396e81613531565b9050919050565b6000602082019050818103600083015261398e81613554565b9050919050565b600060208201905081810360008301526139ae81613577565b9050919050565b600060208201905081810360008301526139ce8161359a565b9050919050565b600060208201905081810360008301526139ee816135bd565b9050919050565b6000602082019050613a0a6000830184613657565b92915050565b6000613a1a613a2b565b9050613a268282613c97565b919050565b6000604051905090565b600067ffffffffffffffff821115613a5057613a4f613d6f565b5b613a5982613d9e565b9050602081019050919050565b600067ffffffffffffffff821115613a8157613a80613d6f565b5b613a8a82613d9e565b9050602081019050919050565b6000819050602082019050919050565b600081519050919050565b600081519050919050565b600081519050919050565b6000602082019050919050565b600082825260208201905092915050565b600082825260208201905092915050565b600082825260208201905092915050565b600081905092915050565b6000613b1e82613c19565b9150613b2983613c19565b9250827fffffffffffffffffffffffffffffffffffffffffffffffffffffffffffffffff03821115613b5e57613b5d613d11565b5b828201905092915050565b6000613b7482613c19565b9150613b7f83613c19565b925082821015613b9257613b91613d11565b5b828203905092915050565b6000613ba882613bf9565b9050919050565b6000613bba82613bf9565b9050919050565b60008115159050919050565b60007fffffffff0000000000000000000000000000000000000000000000000000000082169050919050565b600073ffffffffffffffffffffffffffffffffffffffff82169050919050565b6000819050919050565b82818337600083830152505050565b60005b83811015613c50578082015181840152602081019050613c35565b83811115613c5f576000848401525b50505050565b60006002820490506001821680613c7d57607f821691505b60208210811415613c9157613c90613d40565b5b50919050565b613ca082613d9e565b810181811067ffffffffffffffff82111715613cbf57613cbe613d6f565b5b80604052505050565b6000613cd382613c19565b91507fffffffffffffffffffffffffffffffffffffffffffffffffffffffffffffffff821415613d0657613d05613d11565b5b600182019050919050565b7f4e487b7100000000000000000000000000000000000000000000000000000000600052601160045260246000fd5b7f4e487b7100000000000000000000000000000000000000000000000000000000600052602260045260246000fd5b7f4e487b7100000000000000000000000000000000000000000000000000000000600052604160045260246000fd5b6000601f19601f8301169050919050565b7f4552433732313a2063616c6c6572206973206e6f7420746f6b656e206f776e6560008201527f72206f7220617070726f76656400000000000000000000000000000000000000602082015250565b7f436f756e7465723a2064656372656d656e74206f766572666c6f770000000000600082015250565b7f4552433732313a207472616e7366657220746f206e6f6e20455243373231526560008201527f63656976657220696d706c656d656e7465720000000000000000000000000000602082015250565b7f4552433732313a207472616e736665722066726f6d20696e636f72726563742060008201527f6f776e6572000000000000000000000000000000000000000000000000000000602082015250565b7f4552433732313a20746f6b656e20616c7265616479206d696e74656400000000600082015250565b7f4552433732313a207472616e7366657220746f20746865207a65726f2061646460008201527f7265737300000000000000000000000000000000000000000000000000000000602082015250565b7f4552433732313a20617070726f766520746f2063616c6c657200000000000000600082015250565b7f4552433732313a2061646472657373207a65726f206973206e6f74206120766160008201527f6c6964206f776e65720000000000000000000000000000000000000000000000602082015250565b7f45524337323155524953746f726167653a2055524920736574206f66206e6f6e60008201527f6578697374656e7420746f6b656e000000000000000000000000000000000000602082015250565b7f506c65617365207375626d6974207468652061736b696e67207072696365206960008201527f6e206f7264657220746f20636f6d706c65746520746865207075726368617365602082015250565b7f4552433732313a206d696e7420746f20746865207a65726f2061646472657373600082015250565b7f4f6e6c79206974656d206f776e65722063616e20706572666f726d207468697360008201527f206f7065726174696f6e00000000000000000000000000000000000000000000602082015250565b7f5072696365206d75737420626520616c206c6573742031000000000000000000600082015250565b7f6f6e6c79206f776e6572206f6620746865206d61726b6574706c61636520636160008201527f6e206368616e676520746865206c697374696e67207072696365000000000000602082015250565b7f4552433732313a20696e76616c696420746f6b656e2049440000000000000000600082015250565b7f4552433732313a20617070726f76616c20746f2063757272656e74206f776e6560008201527f7200000000000000000000000000000000000000000000000000000000000000602082015250565b7f50726963206d75737420626520657175616c20746f206c697374696e6720707260008201527f6963650000000000000000000000000000000000000000000000000000000000602082015250565b7f5072696365206d75737420626520657175616c20746f206c697374696e67207060008201527f7269636500000000000000000000000000000000000000000000000000000000602082015250565b7f4552433732313a20617070726f76652063616c6c6572206973206e6f7420746f60008201527f6b656e206f776e6572206f7220617070726f76656420666f7220616c6c000000602082015250565b6142b181613b9d565b81146142bc57600080fd5b50565b6142c881613bc1565b81146142d357600080fd5b50565b6142df81613bcd565b81146142ea57600080fd5b50565b6142f681613c19565b811461430157600080fd5b5056fea2646970667358221220ca6f8b8a9110152b95d3fbb7667c8abe49080d165924699a0fcf6f7a656f1c2264736f6c63430008040033",
  "linkReferences": {},
  "deployedLinkReferences": {}
}